S011000000486578766965772056312E3036D3
S224020000F8B900207102020899540208053502081D530208B92C0208076302080000000073
S224020020000000000000000000000000EB5902081F1002080000000087020208A55C020894
S2240200408B0202088B0202088B0202088B0202088B0202080D5902088B0202088B02020808
S2240200608B0202088B0202088B020208E52C02088B0202088B020208112D02088B0202088C
S2240200808B0202088B0202088B0202088B0202088B0202088B0202088B0202088B020208A1
S2240200A08B0202088B0202088B0202088B020208CD5E02088B0202088B0202088B020208E3
S2240200C08B0202088B0202088B0202088B0202088B02020899600208A36002088B0202087F
S2240200E08B0202088B0202088B0202088B0202088B0202088B0202088B0202088B02020841
S2240201008B0202088B0202088B0202088B0202088B0202088B0202088B0202088B02020820
S2240201208B0202088B0202088B0202088B0202088B0202088B0202088B0202088B02020800
S2240201408B0202088B0202088B0202088B0202088B0202088B0202088B0202088B020208E0
S2240201608B0202088B0202088B0202088B0202088B0202088B0202088B0202088B020208C0
S2240201808B0202088B0202088B0202088B0202088B0202088B0202084B1C012B98BF70472D
S2240201A02DE9F003911C9B08B1F80480B1F802900A8831F802CC8044814402448444D9F886
S2240201C00070D8F800601568DCF80040C9F80060C8F80070CCF800501460D9F80470D8F8F9
S2240201E004605568DCF80440C9F80460C8F80470CCF80450546008315B1ED5D1BDE8F003AA
S22402020070474B1C012B98BF70472DE9F003911C9B08B1F80480B1F802900A8831F802CC35
S22402022000EB580800EB590900EB520200EB5C0CD9F80070D8F800601568DCF80040C9F8CA
S2240202400060C8F80070CCF80050146008315B1EDFD1BDE8F0037047DFF810D000F0B4FE75
S22402026000480047A9860208AFF30080F8B900200648804706480047FEE7FEE7FEE7FEE77E
S224020280FEE7FEE7FEE7FEE7FEE7FEE70D5E0208590202089FED3D0A5FEA920C57D000BF7F
S2240202A0D0ED000A90ED011A0B1D60EEA00A083041EE010AF5EEC00AF1EE10FAA6BFB1EEAC
S2240202C0E01A81ED001A81ED000AD0ED000A90ED011A191D60EEA00A083041EE010AF5EE3B
S2240202E0C00AF1EE10FAA6BFB1EEE01A83ED001A83ED000AD0ED000A90ED011A0B1D60EE6D
S224020300A00A083041EE010AF5EEC00AF1EE10FAA6BFB1EEE01A81ED001A81ED000A90EDA9
S224020320001AD0ED010A191D21EE011A083000EEA01AB5EEC01AF1EE10FAA6BFF1EEC10A1F
S224020340C3ED000A83ED000ABCF1010CA8D112F0030208BF704700BFD0ED000A90ED011A8C
S2240203600B4660EEA00A091D083041EE010AF5EEC00AF1EE10FAA6BFB1EEE01A83ED001A77
S22402038083ED000A521EE7D170470000000000002DE9F04106462DED028B8C46008873688E
S2240203A001EB80044508274601EB850004EB85025FEA95087DD000BFD1ED003AD4ED001A60
S2240203C091ED012A94ED013A73EEA16A91ED024A91ED031AD4ED022AD4ED035A90ED008ACE
S2240203E090ED017A90ED020A90ED036A92ED005AD2ED014AD2ED027AD2ED030AC1ED006A89
S22402040072EE036A73EEE13A74EEC71AC1ED016A74EE226A74EE622A37EEC04AC1ED026A0B
S22402042071EE256AC1ED036A72EE436A31EE652A38EE051A35EE483A80ED001A37EE241A1D
S22402044080ED011A30EE271A80ED021A36EE201A80ED031A30EEC61A93ED000AD3ED010AEA
S22402046063EE804A26EEA05A66EE805A63EEA03A74EE854A75EEE33AC4ED004A63EE204A8C
S224020480C4ED013A61EE803A61EEA00A23EE000A74EEE31A30EE800AC2ED001A82ED010A02
S2240204A093ED020AD3ED030A62EE803A22EE203A00E024E062EEA01A22EE002A73EE832A32
S2240204C01030103172EE611AC4ED022A24EE202AC4ED031A61EE001A61EE200A24EE000AB4
S2240204E0103332EE611A103430EE800A82ED021A82ED030A1032B8F101087FF45DAF294642
S22402050002236046726800F099FD72682946BDEC028B3846BDE8F041022300F08FBD2DE95F
S224020520F34F2DED048B87B00B980088470801EB870000EB870606EB8705CDE90056DDF8CF
S2240205402C80A5F1040C0CEB8703CDE902014FEA5709D8F804800427CDE90497D1ED000AD7
S22402056096ED000A90ED011A95ED013A70EE802A70EEC03AD1ED010A96ED010A041F321F67
S22402058030EE802A70EEC01A31EE230AD0ED000A32EE415A33EEC11A30EE434A71EEE04A56
S2240205A095ED000A70EEA11A35EE435A74EE805A72EEE04A70EEA20A71EEC01A31EE031A8A
S2240205C074EEC04A30EE800A062708F1080A81ED000A90ED010AD5ED010A08F1100B30EEC9
S2240205E0020A08F1180830EE200A81ED010A80ED004AC0ED015AC6ED004A86ED015A85ED12
S224020600001AC5ED011ADDF810900830083108350836A9F102095FEA590900F0078100BF04
S224020620D1ED000A96ED000AD0ED011AD5ED014A30EE802A30EEC05AD1ED010A96ED010A22
S22402064070EE802A30EEC01A31EE850AD5ED000A30EE644A90ED000A31EE403A30EE011AF4
S22402066073EE205A32EE403A30EE020A31EE601A73EE603A30EE200A32EEE13A75EE611ADF
S22402068081ED000A90ED010AD5ED010A33EE643A30EE220A71EEA41A30EE200A81ED010A9F
S2240206A0D4ED002ADCED004A54ED010A1CED010A32EEA47A32EEE49A72EEE42A52ED018AC1
S2240206C070EE807A30EEC02A72EEE82AD2ED000A93ED000A13ED018A30EEC05A72EE886AD9
S2240206E077EEE82A35EE026A32EEC85A77EE602A72EEC04A70EEC02A70EE870A72EEC22ACF
S22402070030EE800A38EE682A84ED000A12ED010A53ED010A32EE492A30EE270A30EE200A78
S22402072004ED010A9AED000ADAED010A64EE007A25EEA07A65EE805A24EE204A37EE877A8B
S22402074035EEC44A80ED007A80ED014A26EEA04A66EE005A66EE200A26EE800A083034EEA0
S224020760654A083130EE800A82ED004A083C02ED010A9BED000ADBED010ADDF814E023EEAC
S224020780804A63EE205A23EE003A63EEA03A083A34EE254A0BEB8E0B33EE633A86ED004A6A
S2240207A00AF1080A86ED013AB1EE643A083663EE003A25EE203A25EE000A64EEA00A33EECA
S2240207C0C33A30EEC00A8CED003A0CED010A98ED000AD8ED010A08EB870861EE803A21EE7D
S2240207E0203A21EE001A61EEA01AACF1080C33EE833A31EE611A85ED003A62EE801A85ED35
S224020800011A22EE201A62EEA00A22EE000A083531EE611A30EE800A83ED001A03ED010A54
S224020820083BB9F101097FF4FBAE00BFD1ED000A96ED000A91ED011AD0ED015A30EE802A11
S22402084070EEC00A96ED010A95ED015A042371EE001A71EE404A35EEA00A90ED001A31EEF2
S224020860E54A70EEE50A30EE453A95ED000A34EE454A30EE855A74EEC12A72EE413A71EE97
S224020880240A31EE021A72EE802A73EEC03A70EEC00A31EE000A81ED000A90ED010A95EDB0
S2240208A0011A30EE210A30EE010A81ED010A9AED000A9AED011A63EE001A22EE812A22EEC2
S2240208C0800A23EE011A71EE821A30EE410AC0ED001A80ED010A9BED000A9BED011A63EE32
S2240208E0801A24EE012A24EE000A23EE811A71EE821A30EE410AC6ED001A86ED010A98ED1E
S224020900010A98ED001A60EE801A25EE012A60EE810A25EE000A32EE211A30EEC00A85ED55
S224020920001A85ED010A0B984268DDE9030100F085FB0B98042304994268029800F07EFB7E
S2240209400B98042304994268019800F077FB0B98049904234268009807B0BDEC048B02B03A
S224020960BDE8F04F00F06ABB2DE9F0410488984617460D460646012A20D1281DF4B1A0F133
S224020980080114F0010F06D091ED020AB1EE400A81ED020A08315FEA540C0FD091ED020A25
S2240209A0B1EE400A81ED020A91ED040AB1EE400A81ED040A1031BCF1010CEFD1B4F5807F79
S2240209C01BD008DC102C13D0202C16D0402C19D0802C0DD01CE0B4F5007F13D0B4F5806F73
S2240209E006D0B4F5006F08D0B4F5805F0AD00FE029463046FFF7CCFC0AE029463046FFF771
S224020A008EFD05E0214601232846726800F016FBB8F1000F04D0B1892846B268FFF7BCFB90
S224020A20012F18BFBDE8F08100EE104AB7EE001A002CF8EE400A81EE200A08BFBDE8F081B9
S224020A40A5F1080014F0010F0ED0D0ED020A60EE800AC0ED020AD0ED030AF1EE600A60EE44
S224020A60800AC0ED030A0830610808BFBDE8F081D0ED020A60EE800AC0ED020AD0ED030A89
S224020A80F1EE600A60EE800AC0ED030AD0ED040A60EE800AC0ED040AD0ED050AF1EE600A01
S224020AA060EE800AC0ED050A1030491EE0D1BDE8F081000070B44FF0000CB0EC010A4E1EAB
S224020AC06446B50832D000BFD0ED000A90ED011A0830B4EEE00AF1EE10FA3CBFB0EE600AD8
S224020AE00CF10104B4EEC10AF1EE10FA3CBFB0EE410A0CF10204D0ED000A90ED011A083019
S224020B00B4EEE00AF1EE10FA3CBFB0EE600A0CF10304B4EEC10AF1EE10FA3CBFB0EE410A18
S224020B200CF104046D1E0CF1040CCDD116F0030C18D0BCF1004F1AD2BCF1000FC4BF00252A
S224020B4066460FDDD0ED000AF4EEC00AF1EE10FA04DD4C19B0EE600AA4EB0C04001D6D1C07
S224020B60761EEFD182ED000A1C6070BC7047F0EC010AB4EEE00AF1EE10FA3CBFB0EE600AE3
S224020B80A1EB0C04BCF1010CF1D1EBE79FED220A8B0812D090ED002A90ED011AD0ED020A2F
S224020BA030EE020AD0ED031A10305B1E30EE010A30EE200A30EE210AECD111F003031AD009
S224020BC0B3F1004F20D2002B15DD001F13F0010F04D0D0ED010A001D30EE800A5B080AD03C
S224020BE0D0ED010A30EE800AD0ED020A08305B1E30EE800AF4D100EE901AF8EE600A80EE41
S224020C00201A82ED001A7047F0EC010A5B1E30EE800AF9D1EFE700000000000040EA01037D
S224020C209B0703D009E008C9121F08C0042AFAD203E011F8013B00F8013B521EF9D270473D
S224020C40D2B201E000F8012B491EFBD270470022F6E710B513460A4604461946FFF7F0FF1E
S224020C60204610BD2DE9FE4F804681EA0300C00F0C46009021F0004123F00045B8EB0200A3
S224020C80A94105D24046214690461C460B46024623F00040104347D0270DC7F30A00C3F363
S224020CA00A510290401A019040286BDAC3F3130040F4801B0098924620B10023D2EB030AE2
S224020CC063EB0B0B01985946C0F14002504600F011F906460D4650465946019A00F019F97D
S224020CE010EB08006141002487EA115284EAE7731A4340D0009A62B3019A012A4FEA075214
S224020D0015DC001B61EB02014FF0004202EA0752CDE90042001C41F5801132462B4600F0F7
S224020D200AFC03B0BDE8F08F40462146F9E7001B61EB0201001C41F5801300185B412018C7
S224020D40A2F5001747EB030140EAD570B6196D4111E06D084FEA360645EAC0754FEA0752EB
S224020D60001B61EB0201001C41F5801149084FEA30000019514132462B4603B0BDE8F04F3A
S224020D8000F0CABB0098012240000023D0EB020263EBE073009821464FEAE074B8EB00002A
S224020DA061EB0401E9E783F000435BE781F0004158E72DE9FE4F81EA030404F0004421F004
S224020DC0004100944FF0000B23F0004350EA01045ED052EA03045BD0C3F30A54C1F30A5595
S224020DE02C44A4F2F3340194A0FB0254C1F3130141F48011C3F3130343F4801301FB0244D3
S224020E0000FB034E840A970A44EA815447EA8357A4FB076802958D0A05FB07854FEA932C82
S224020E2004FB0C542705029D4FEA065847EA1637B5EB08056EEB070C870E920E47EA811755
S224020E4042EA8312A7FB0201B6EB0B0164EB00042B0D43EA0C335E1844EB1C50DA465146B9
S224020E60E7FB0201C5F313044FEA0B3343EA14534FEA0432019C43EA0603A4F10C0402942F
S224020E80009CCDE900B400F056FB03B0BDE8F08F00200146F9E700F0004230F000400AD07A
S224020EA0C10D01F56071C0F3160042EA0151C20840071143704700200146704701F00043E1
S224020EC030B421F0004150EA010206D00A0DA2F56072C1F31301002A02DC30BC00207047AF
S224020EE0440F44EAC104C100E01830BC00EBC25000F021B8202A04DB203A00FA02F10020AA
S224020F0070479140C2F1200320FA03F3194390407047202A06DBCB17203A41FA02F043EAB8
S224020F20E07306E041FA02F3D040C2F1200291400843194670470029A8BF7047401C49003E
S224020F4008BF20F00100704710B4B0FA80FC00FA0CF050EA010404BF10BC704749B1CCF1DF
S224020F60200421FA04F411FA0CF118BF012121430843A3EB0C01CB1D4FEA00614FEA1020FD
S224020F8042BF002010BC704700EBC35010440029A4BF10BC7047401C490008BF20F00100C8
S224020FA010BC70470EB5C10F80EAE0700844CA07002140F233438DE80E000A460B4600F060
S224020FC0BAFA03B000BD0000064C074D06E0E06840F0010394E8070098471034AC42F6D381
S224020FE0FFF73EF9B8A20208D8A2020802460020936D0B400BB1012000E0002070477047D7
S224021000323634353530363121B1826842F00102826003E0826822F0010282607047704727
S22402102041440000024642FA01F000F00100704756312E302E303700000000002DE9FF4F29
S2240210402DED108B82B09FEDFEFA0B461C46DB084FF0000C0CEB030505EB030808EB030944
S22402106009EB030606EB030A00EBCC0700EBC60697ED001AD6ED000A0AEB030B00EBC505D6
S22402108000EBCA0A31EE200A71EE601A95ED002ADAED000A0BEB030E00EBC80832EE201ACF
S2240210A000EBCB0B32EE602AD8ED002ADBED000A00EBC90900EBCE0E99ED003A9EED004AE4
S2240210C072EEA03A72EEE02A73EE040A33EE443A70EE636A70EE233A31EE600A71EE200A5F
S2240210E033EEA01A73EEE00A87ED001AC6ED000A97ED011AD6ED010AD5ED013A98ED014A3E
S22402110031EE206A71EE600A9AED011A99ED015A73EE814A73EEC13A9BED011A34EE017A0B
S22402112034EE411A9EED014A75EE045A35EE444A36EE475A36EE076A34EEE57A74EEA54AB7
S22402114076EE245A76EE644AC7ED015AC6ED014A76EE874AC8ED004A76EEC74ACBED004ADC
S22402116075EE404A35EE000AC8ED014A8BED010A32EE430A32EE032A20EE0F0A62EE0F4A41
S22402118033EEC42AA4448C4522EE0F3A33EE842A30EEC34A62EE0F3A30EE833A31EEC02AB0
S2240211A031EE800A71EE630A31EE231A72EEE41A72EEA42A70EE013A30EE410AC5ED003ADD
S2240211C08EED000A32EE200A8AED000A32EE600A89ED000A33EE620A85ED010A33EE220A57
S2240211E08EED010A34EE610A8AED010A34EE210A89ED010AFFF42EAF082B3FBF02B0BDEC29
S224021200108B04B0BDE8F08F4FF0000CCDF804C04FF0010CCDF800C0DDF804C0159DAC4474
S2240212204FEA8C0505EB0C07CDF804C007EB0C094FEA4C0808EB0C0609EB0C0A02EBCC0CE9
S22402124002EBC80802EBC60602EBC50502EBC70702EBC90902EBCA0A9CED00DA9CED018AA8
S224021260D8ED00CA96ED00CAD5ED00BA97ED00BAD9ED00AADAED008AD8ED017A96ED01AAA2
S22402128095ED017AD7ED016A99ED016ADAED019ADDF800C00CEB0307FD1805EB030A0AEB2B
S2240212A0030808EB030606EB030B00EBCC0900EBC808D9ED000A98ED000A00EBC70700EBA3
S2240212C0C606D7ED001A96ED001A70EE803A0BEB030E70EEC00A31EE810A00EBC50500EB2F
S2240212E0CB0B31EEC11AD5ED001A9BED002A00EBCA0A00EBCE0E31EE824A71EEC21A9AED56
S224021300002ADEED002A32EE223A32EE622A73EEC42A73EE843A30EE435A30EE030A33EE0A
S224021320803A73EEC0DA89ED003A99ED010A98ED013AD7ED013A95ED014A70EE03EA30EEBB
S224021340433A96ED010A9AED01EADEED014A33EE809A73EEC03A9BED010A74EE005A34EEEC
S224021360404A3EEE240A7EEE644A3EEEE5EA7EEEA55A79EE40EA39EE009A32EEAE0A72EE78
S224021380EE2A75EE89EA35EEC99A7EEE455AC9ED01EA3EEE055A2BEEADEA67EE09EA2BEE8A
S2240213A0899A67EE2DDA3EEE2EEA39EE6D9A88ED00EA67EEA5DA88ED019A2CEE809A6CEE64
S2240213C0A55A27EE800A39EE2D9A35EEC00A85ED009A66EE055A85ED010A2AEEA20A2AEE75
S2240213E0855A66EE222A30EE250A8BED000A35EE620A73EEA42A8BED010A31EE420A31EECD
S224021400021A33EEE42A62EE8F3A20EE0F0A21EE0F1A22EE0F2A70EEC02A30EE800A71EE6A
S224021420C10A71EE811A33EE421A33EE022A34EE633A34EE234A70EE043A30EE444A01E09F
S224021440F304353F72EE834A72EEC32A32EE613A32EE210A71EE601A71EE200A2DEE232AD0
S22402146028EE031A2DEE033A68EE233AA44432EE011A28EE842A8C4587ED001A33EE631A43
S22402148029EE843A87ED011A29EE801A28EE800A32EE011A30EE430A26EEA42A8EED001A73
S2240214A08EED010A2BEE240A26EEA11A6BEE211A30EE010A2CEE221A86ED000A31EEC20A0E
S2240214C06AEE221A86ED010A2AEE200A6CEE200A31EE000A8AED000A30EEE10A8AED010AF8
S2240214E0FFF4D8AEDDF800C00CF1010CCDF800C063453FF691AEDDF854C04FF6FF7404EA9D
S224021500CC0CCDF854C0072B3FF6A0AD02B0BDEC108B04B0BDE8F08F10B5141E73F1000432
S22402152008DA401C41F1000192185B411A4301D120F0010010BD2DE9F04D92469B4611B112
S224021540B1FA81F202E0B0FA80F220329046FFF7D1FC04460F4640EA0A0041EA0B015346DA
S2240215605A46084313D0114653EA010019D0C8F14002504600F02DF805460E46504659469E
S2240215804246FFF7B7FC084305D0012004E020463946BDE8F08D0020054346EAE0762C438A
S2240215A037430A986305E40AA0EB08000022FD0A44EA47540A3002D500200146E9E70105DF
S2240215C010196941DDE9084500196941BDE8F04DA2E7202A04DB203A21FA02F00021704788
S2240215E021FA02F3D040C2F1200291400843194670472DE9F04D81EA030404F0004B21F0A8
S224021600004514464FF0000A23F0004150EA050220D054EA01021DD0C5F30A570246C5F30F
S2240216201303C1F31300C1F30A5640F4801543F48013A7EB0608101BD64608F2FD3873EBAB
S224021640050002D308F1010801E092185B41B8F1000F03DA00200146BDE8F08D00204FF4FF
S2240216608011064684460EE0171B73EB050705D3121B63EB050306434CEA010C49084FEAC1
S224021680300092185B4150EA0107EDD152EA030012D082EA040083EA0501084305D0101B7E
S2240216A0AB4106D20122002306E000224FF0004302E06FF0010253101AEB06004CEB08514D
S2240216C010EB0A0041EB0B01BDE8F04DFFF724BF30B5041E71F1000404DB4FF000444042BA
S2240216E064EB0101141E73F1000405DB1C464FF00043524263EB04038B4208BF824230BD06
S22402170070B58C1810F8015B15F0070301D110F8013B2A1106D110F8012B03E010F8016BD3
S22402172001F8016B5B1EF9D12B0705D40023521E0DD401F8013BFAE710F8013BCB1A921C8E
S22402174003E013F8015B01F8015B521EF9D5A142D8D3002070BD000010B588B00446002C57
S22402176073D0482221463A48FFF758FA0121042003F0E2FF0220ADF8080000208DF80B00EB
S22402178002A9344801F026FE334801F0E5FA0121084603F0A1FF2E4918312F4801F0CEFBC7
S2240217A00B208DF8040000208DF8050001208DF806008DF8070001A803F084FE0122022128
S2240217C0254801F0BFFA0121234801F09FFB0121080303F081FF0721002000F041F80020A2
S2240217E0039001208DF810008DF811004FF4602005900020069001208DF81C0003A9174828
S22402180000F0FAF8052301220221144800F03DF80121124800F0CCF801211048FFF7F4FB61
S22402182000BF20210D48FFF7E1FB0028F9D00B4800F00AF900BF094800F0D0F80028FAD188
S2240218400121064800F0BFF800BF08B010BD000004570020000801400800024000080240CE
S22402186070B505460C4645B900214FF4807003F07DFE204603F06EFE06E00121204603F0B9
S22402188075FE002003F066FE70BDF0B50446154600200022122905D1E06D20F007001843CE
S2240218A0E06520E0092911DDE068A1F10A0606EB4607072606FA07F29043A1F10A0606EB08
S2240218C0460603FA06F21043E0600CE0206901EB4107072606FA07F2904301EB410603FA5B
S2240218E006F210432061072D0FDA606B6E1E06EB86071F2606FA07F290436E1E06EB860609
S22402190001FA06F21043606322E00D2D0FDA206BEE1F06EB86071F2606FA07F29043EE1F5E
S22402192006EB860601FA06F21043206310E0E06AA5F10D0606EB86071F2606FA07F29043E8
S224021940A5F10D0606EB860601FA06F21043E062F0BD000030B5034600210022002013E0A1
S22402196001EB01140F4D05EB440434F81040B4F5805F00DB0AE001EB01140A4D05EB440472
S22402198034F810402244401C1028E9D300BF102804D1C2F30F14044D25F811400124034D36
S2240219A02C6030BD40030020200000201C00002021B1826842F48072826003E0826822F41F
S2240219C080728260704721B1826842F4A002826003E0826822F4A00282607047014600207A
S2240219E08A6802F004020AB1012000E000204A6D02B100207047000030B502460020002369
S224021A0050680F4C20400D790C6844EA05242043506090680B4C2040D1E902542C434D79F4
S224021A2044EA450420439060D06A20F470000C7C641EE4B2234340EA0350D06230BD000075
S224021A40FFFEF0FFFDF7F1FF416D19B9816841F0040181607047024612B94FF0FF302CE0EB
S224021A60002070EE811AF4EEC01AF1EE10FA0ED213888B4201DA11801FE01388B3EB410F65
S224021A8003DA13885B1C138017E0012015E070EE011AF4EEE01AF1EE10FA0DD213888B422B
S224021AA001DD118009E01388002B03DD13885B1E138002E0022000E01180704730B52B48F6
S224021AC0008800EE100AB8EE400ADFED290A20EE200ADFED280A80EE201A9FED270A21EED6
S224021AE0000ADFED260A80EE201A9FED250A31EE000AB0EE402A0A219FED221AF2EE020A66
S224021B00B0EE420A2048FFF7A6FF04460A219FED1D1AF3EE000AB0EE420A1B48801CFFF7CF
S224021B209AFF05461948007900F0030050B1022D18D1012C16D11548007920F0030013497B
S224021B4008710FE0012D05D11048007940F001000E490871022C05D10C48007940F002003D
S224021B600A490871094880ED002A30BD200000203333534000F07F4500009644000048436B
S224021B803333333FCDCC4C3E220000201400002010B592B0002448216846FFF758F81D48E0
S224021BA006901D490791002108911021099100210A9180210B9181150C9101150D912021E4
S224021BC00E9109020F9100211091144811906846FFF7C2FD4FF6FF70114908800020114982
S224021BE0086000BF0F4800680028FBD00C4800880028F7D00A48008840F2EC41884200DA5D
S224021C00012400200749086007490871204612B010BD00004C080240400300205519020891
S224021C20200000201C0000201400002010B500240848006860B1002006490860064800888E
S224021C4040F27441884200DA0124FFF737FF00BF204610BD1C0000202000002070B52DEDF4
S224021C600A8B0446002C7CD0002141F208400153801C01539FED670AF0EE408A002561E01B
S224021C8004EBC50090ED000A6800401C04EB8000D0ED000A30EE200AF0EE000A80EE208AC0
S224021CA05D48D0F8000870B15B48D0F8000800EB850090ED000A20EE080A584901EBC500AB
S224021CC080ED000A04E0554901EBC50080ED008A9FED500A6800401C504901EB800080ED40
S224021CE0000A18EE100AFFF7D6F841EC1C0BB0EE4C0AF0EE6C0A04F015FBB0EE40AAF0EEE9
S224021D0060AA18EE900AFFF7C6F841EC1B0B53EC1A2BFEF7A7FF41EC190BFFF7CFF808EEE8
S224021D20900A3F4890ED000AB4EEC08AF1EE10FA07D241F20840005B401C81B241F2084066
S224021D4001536D1CB5F5007F9AD39FED360AC8EE800A04F5A050C0ED000A90ED000A32485C
S224021D6000E053E0D0ED000A80EE201A04F5A05080ED001A0123002228492C48FEF7F4FD59
S224021D804FF4007224492548FEF784FA224890ED000ADFED240A80EE201A04F5805080ED71
S224021DA0001A01202FE01C4901EB800191ED000A9FED1F1AC0EE010A04F5805191ED000AA8
S224021DC030EEC00A01EB800181ED000A194951F82010B1F5FA5F15D204F5805101EB800137
S224021DE091ED000A1449D1ED000AB4EEE00AF1EE10FA07D241F20A41095B491C8AB241F22B
S224021E000A410A53401CFF28CDD900BFBDEC0A8B70BD000000000000C8280020C8180020B0
S224021E203C0200200000004444020020E88E020800008043E88A02084002002010B5044663
S224021E4000F0E6FD00203349088001204880032088800420C8800A20088110204881152023
S224021E6088811D20C8812820088234204882C020888200212848C0F8001800202749086099
S224021E802748007D02280FD19FED260A264880ED000A9FED260A264880ED000A9FED250A48
S224021EA0254880ED000A22E01D48007D03280FD19FED1C0A1C4880ED000A9FED1C0A1C48A5
S224021EC080ED000A9FED1D0A1B4880ED000A0EE0B3EE080A144880ED000ABAEE000A144875
S224021EE080ED000AB7EE000A134880ED000A00201349086013494860086013490860134973
S224021F0008604FF47A601249086058211148FEF79EFE10BDB0180020C82800202402002004
S224021F20FC0200200000C0453C020020000000C54002002000008043440200200000804702
S224021F403802002028020020300200203402002048020020CC3000202DE9F34F2DED028BA9
S224021F60ADF6640D8246BAF1000F7DD00020CDF860084FF00409C948416818A800F024FD53
S224021F8017901798002870D0C448C1891798B0FBF1F016901698002868D018AE18AD40214B
S224021FA002A8FEF754FE0024D4E0BD480068B0F5806F7DD2B948007DF0B936F814001290F6
S224021FC0601C36F81000139036F8140000B200EE100AB8EEC08A601C36F8100000B200EE57
S224021FE0100AF8EEC08A36F814001490601C36F810001590A41C60E0A848007D01281BD1C9
S22402200055F8240012A901F0E5FA00EE100AB8EEC08A611C55F8210013A901F0DBFA00EE6A
S224022020100AF8EEC08A55F824001490601C55F820001590A41C40E09848007D02281FD155
S22402204055F8240012A901F0D7FA00EE100AB8EEC08A611C55F8210013A901F0CDFA00EE46
S224022060100AF8EEC08A02E00DE1C4E0BEE055F824001490601C55F820001590A41C1CE09E
S22402208055F8240012A901F0C9FA00EE100AB8EEC08A611C55F8210013A901F0BFFA00EE22
S2240220A0100AF8EEC08A55F824001490601C00E039E055F820001590A41C78491498896815
S2240220C0084020B9754915988968084028B10320CDF860084FF0010940E0002010E001226F
S2240220E002FA00F1129A0A404AB9139A0A4032B902AA32F81020521C02AB23F81020401C49
S2240221002028ECD338EE280AF0EE000A80EE201A634801680068401C614A10600AEB810060
S22402212080ED001A00BF5E480068B0F5806F11D300205B4908605B4801F086FADDF870083F
S22402214018B15046DDF8701888470220CDF860084FF0000916988442FFF427AF00BFB9F1B0
S224022160010F42D0C4F34F0001904C48007D08B910270CE04948007D012801D1102706E084
S2240221804648007D022801D1182700E020274FF020084FF0000B00200EE002A931F8102008
S2240221A001998A4207DA834501D81FFA80FB804501D31FFA80F8401C2028EED308F10F0005
S2240221C0834506DB08EB0700401E584501D04FF0020934485438A0F84480A0F846B04022EB
S2240221E002A9001DFEF71AFD00BF00BF4FF47A602D49086004E02C48006808B94FF00309BF
S224022200B9F1040F2BD029480078814508D000202749264A127821F81200244880F800904F
S22402222023482249097830F81100401C20491F4A127821F8120008461C49097830F81100B7
S2240222401C49098888420ADB00201949174A127821F8120015480078104981F829000F4813
S22402226090F8290038B900200C4981F828000A211048018006E00120084981F8280014206E
S2240222800C49088002E00120CDF86008DDF860080DF6640DBDEC028BBDE8FC8FFC020020F5
S2240222A024020020203100204802002050020020540200205202002030B502460020002A23
S2240222C078D0137B032B21DBD2ED010AC2ED000AD2ED020AC2ED010A82ED020AD2ED010AAA
S2240222E092ED001AF4EEC10AF1EE10FA0BDDD2ED010A92ED021AF4EEC10AF1EE10FA02DDE6
S224022300012454770BE00024547708E0147B631C137302EB840383ED000A00245477012969
S22402232004D1537F012B3DD1012089E0012939D9537F012B36D1137F032B25DBD2ED050A5C
S224022340C2ED040AD2ED060AC2ED050AD2ED010AC2ED060AD2ED050A92ED041AF4EEC10A8B
S224022360F1EE10FA0CDDD2ED050A92ED061AF4EEC10AF1EE10FA03DD01242D239C5411E04B
S22402238000242D239C540DE0D2ED010A147F631C137702F1100303EB8403C3ED000A002426
S2240223A02D239C54022906D12D239B5C012B3BD1012045E043E0022936D92D239B5C012B3F
S2240223C032D12C239B5C032B1CDBD2ED090AC2ED080AD2ED0A0AC2ED090AD2ED050AC2EDE3
S2240223E00A0AD2ED090A92ED081AF4EEC10AF1EE10FA03DD01243D239C5415E000243D23EB
S2240224009C5411E0D2ED050A2C239C5C9B5C5B1CDDB22C239D5402F1200303EB8403C3ED47
S224022420000A00243D239C54032905D13D239B5C012B04D1012003E0032900D900BF00BF36
S22402244030BD000010B52DED068B0446002C74D004F5A05090ED000A10EE101A0846FEF783
S2240224601AFD41EC1A0BB0EE4A0AF0EE6A0A04F047F9B0EE409AF0EE609A51EC190BFEF7CE
S2240224801DFD00EE100AF3EE040A20EE200AB0EE408A9FED950AB4EEC08AF1EE10FA06DDA1
S2240224A0B2EE0C0A04F5A05080ED010ABCE09FED8F0AB4EEC08AF1EE10FA06DDB2EE0A0AD1
S2240224C004F5A05080ED010AAEE09FED890AB4EEC08AF1EE10FA06DDB2EE080A04F5A05094
S2240224E080ED010AA0E09FED830AB4EEC08AF1EE10FA06DDB2EE060A04F5A05080ED010AFB
S22402250092E09FED7D0AB4EEC08AF1EE10FA06DDB2EE040A04F5A05080ED010A84E09FED78
S224022520770AB4EEC08AF1EE10FA07DDB2EE020A04F5A05080ED010A76E0D2E09FED700A3F
S224022540B4EEC08AF1EE10FA06DDB2EE000A04F5A05080ED010A67E09FED6A0AB4EEC08A7E
S224022560F1EE10FA06DDB1EE0C0A04F5A05080ED010A59E09FED640AB4EEC08AF1EE10FA6A
S22402258006DDB1EE080A04F5A05080ED010A4BE09FED5E0AB4EEC08AF1EE10FA06DDB1EEC9
S2240225A0040A04F5A05080ED010A3DE09FED580AB4EEC08AF1EE10FA06DDB1EE000A04F540
S2240225C0A05080ED010A2FE09FED520AB4EEC08AF1EE10FA06DDB0EE080A04F5A05080EDD7
S2240225E0010A21E09FED4C0AB4EEC08AF1EE10FA06DDB0EE000A04F5A05080ED010A13E032
S224022600B3EE0E0AB4EEC08AF1EE10FA06DDB7EE000A04F5A05080ED010A05E09FED3F0A78
S22402262004F5A05080ED010A04F5A05090ED010AF2EE0C0AB4EEE00AF1EE10FA04DBB2EED7
S2240226400C0A80ED010A0CE004F5A05090ED010AB5EEC00AF1EE10FA03D29FED300A80ED2A
S224022660010A41F24C402044008B0521B0FBF1F201FB120041F24C41214401EB800104F54D
S224022680A05090ED010A81ED000A41F24C402044008B401C41F24C412144088341F24C40CA
S2240226A02044008B0521B0FBF1F201FB120041F24C412144088341F24C402044408B052897
S2240226C009D241F24C402044408B401C41F24C412144488304E0052041F24C4121444883E5
S2240226E000BFBDEC068B10BD00009C42000096420000904200008A420000844200007C4235
S22402270000007042000064420000584200004842000034420000204200000C420000000010
S22402272070B5ADF5826D0446002C6ED040F2044103A8FEF78CFA3648868A04F5805090EDB7
S224022740000A8DED030A90ED010A8DED040A90ED020A8DED050A90ED030A8DED060A90ED2E
S224022760040A8DED070A052518E004F5805000EB850090ED000A04F58050691C00EB81001D
S224022780D0ED000A30EE200AF0EE000A80EE201A03A800EB850080ED001A6D1CB542E4D3BA
S2240227A001AB02AA314603A8FEF784F9184840880199884205D3012041F24C41214488876D
S2240227C022E01348408A0199884205D2092041F24C412144888717E001250EE00C4830F8AC
S2240227E015000199884207D20949681C31F810000199884200D302E06D1C0A2DEED300BF18
S22402280041F24C4121448D8700BF0DF5826D70BDB018002010B50446002C7DD041F29D401B
S224022820005D88B98C2063494860B42008604FF4FA706149086047F230506049086000210D
S22402284041F29E4001559FE041F29E40005D022821D14FF4FA705849086041F20840005B75
S224022860B0F5E17F0AD841F20A40005BA9280ED941F20840005BB0F5CD7F08D94D48006835
S224022880002803D1012141F29E4001557CE0B4204849086078E041F20840005BB0F5E17F50
S2240228A06BD841F20A40005BA92866D8B4204149086008464068002866D1022141F29E4098
S2240228C0015541F24C402044808F41F24C412144C88739480068D0B938480068B8B947F2F1
S2240228E030503649086041F29C40005D401CC1B241F29C400155005D314991F8261090FBA9
S224022900F1F201FB1200C1B241F29C400155002141F20C40204400E04BE080F82C1041F2F1
S2240229200C40204480F83C10002041F294412144087141F2944121444871182141F24C40F8
S2240229402044FEF784F9002041F24C412144088341F24C4121444883182141F24C4020447E
S2240229601C30FEF774F9002041F24C412144888641F24C412144C88606E08C200D4948604C
S2240229800846006800B900BF0A4800680D498864094801680B48C164084801680948016564
S2240229A041F20840005B0749088041F20A40005B488010BD28020020300200203402002003
S2240229C0FC020020CC30002070B504460D463CB135B12A462146044805F0AEFF064600E030
S2240229E00026304670BD00006431002070B504460D463CB135B12A462146044805F0E7FFBF
S224022A00064600E00026304670BD00006431002010B54FF400520249024805F0C5FF10BD90
S224022A2074310020643100201848006820B117480068401E154908601548406820B114485F
S224022A404068401E124948601148006820B110480068401E0E4908600E48006820B10D4813
S224022A600068401E0B4908600B48006820B10A480068401E084908600848006820B1074898
S224022A800068401E0549086070470000380200202802002030020020340200204802002046
S224022AA030B52DED028B81B00446002C7ED0002504F5A05090ED000AB0EE408A41F24C40D2
S224022AC02044C08E052829D341F24C402044C18E6A4641F24C4020441C30FEF757F804F546
S224022AE0A05090ED010AB5EEC00AF1EE10FA15DD9DED000ADFED440A20EE200AB4EEC80AB5
S224022B00F1EE10FA0AD2012141F20C402044B0EE480AFFF7D1FB012800D1012541F24C4053
S224022B202044808E0521B0FBF1F201FB120141F24C4020441C3000EB810080ED008A41F254
S224022B404C402044808E401C41F24C412144888641F24C402044808E0521B0FBF1F201FB00
S224022B60120041F24C412144888641F24C402044C08E052809D241F24C402044C08E401CC3
S224022B8041F24C412144C88604E0052041F24C412144C8869DB3012041F2944121444871A8
S224022BA041F2944020444088401C00E028E041F294412144488004F5A050D0ED010AB2EE11
S224022BC0041A70EE810A9FED111A60EE810AB0EE600A41F24C402044D0ED0E0AF4EEC00AAB
S224022BE0F1EE10FA0AD841F24C40204480ED100A002041F24C41214481F8440000BF00BFD9
S224022C0001B0BDEC028B30BDD509883F9A99193F00284BD026490968002947D12549097856
S224022C204FF47A7211FB02F1214A116041F2944101444A8841F294410A52002141F29442D6
S224022C400244518041F29441095C41F294420244117141F2944101440979164A127802EB72
S224022C608202914208DB032141F29442024491710121104A117019E041F2944101440979D9
S224022C800C4A127802EB4202914208DB022141F29442024491710121064A117006E00121F7
S224022CA041F2944202449171024A117070470000380200205C02002000BFFEE70146044829
S224022CC00068084008B1012070470020FCE700001C020020024909688143014A1160704778
S224022CE01C02002010B50849022000F01BF948B10549022000F024F80448406C10B10348DA
S224022D00416C884710BD0000000002400457002010B509494FF4005000F004F950B10649BF
S224022D204FF4005000F00CF80448006C10B10348016C884710BD0000000002404C57002033
S224022D40486070471AB103680B43036002E003688B4303607047000001684FF6FE72114082
S224022D6001600021016041608160C1606549884208D164490839496841F00F01614A083AA8
S224022D805160BEE05F491431884208D15D490839496841F0F0015B4A083A5160B1E05949C8
S224022DA02831884208D157490839496841F47061544A083A5160A4E052493C31884208D1B8
S224022DC050490839496841F470414E4A083A516097E04C495031884208D14A49083949683B
S224022DE041F47021474A083A51608AE045496431884208D143490839496841F47001414AA3
S224022E00083A51607DE03F497831884208D13D490839496841F070613A4A083A516070E046
S224022E2038498C31884208D136490839496841F07041344A083A516063E03349884206D186
S224022E40011F096841F00F01021F116059E02E491431884208D12C49091F096841F0F0013F
S224022E60294A121F11604CE027492831884208D12549091F096841F47061234A121F116082
S224022E803FE021493C31884208D11F49091F096841F470411C4A121F116032E01A495031AD
S224022EA0884208D11849091F096841F47021164A121F116025E014496431884208D11249B1
S224022EC0091F096841F470010F4A121F116018E00D497831884208D10B49091F096841F0F9
S224022EE07061094A121F11600BE007498C31884207D10549091F096841F07041024A121F25
S224022F0011607047080002400804024021B1026842F00102026004E002684FF6FE731A40B9
S224022F200260704710B50246002000230B6803EA02040CB1012000E0002010BD10B5002229
S224022F40026847F6F0739A430C6A8B6823430C6923434C6923438C692343CC6923434C6A12
S224022F6023438C6A23431A430260CB6843600B6883604B68C36010BD012080F3138800BF0C
S224022F8000BF00BF00BF00BF00BFBFF34F8F00BF00BF00BF0948006800F4E0600849084319
S224022FA0001D0649086000BF00BF00BFBFF34F8F00BF00BF00BF00BF00BFFDE70CED00E0F1
S224022FC00000FA054FF48020FFF7D6FF0249C9680143014AD16070470020024030B50446B9
S224022FE006257C20FFF7F2FF4FF4302000F0A6F80546062D17D10D48006940F002000B4951
S224023000086108464461006940F0400008614FF4302000F093F805460448006943F6FD7156
S224023020084002490861284630BD00000020024006201249C96801F0010109B101201CE054
S2240230400E49C96801F0040109B1032015E00B49C96801F0080109B104200EE00749C9684D
S22402306001F0100109B1052007E00449C96801F0400109B1072000E00620704700200240D1
S2240230800348006940F080000149086170470000002002400549096821F01001034A11605A
S2240230A01146096801431160704700000020024078B504460D4606260020009004F00300D6
S2240230C010B10926304678BD7C20FFF77FFF4FF4005000F033F80646062E12D10A48006972
S2240230E040F001000849086125604FF4005000F025F806460448006943F6FE71084002497D
S22402310008613046DFE700000020024001460020034A106800F0F80008431060704700001B
S224023120002002400248034948600348486070472301674500200240AB89EFCD00B502461F
S2240231400623FFF775FF034603E0FFF771FF0346521E012B01D1002AF7D102B90A23184654
S22402316000BD0000F0B50C460023002600220025002100F00047B7F1004F02D18B4FFA69A5
S22402318019E000F08047B7F1804F02D1874F3A6A11E000F00057B7F1005F02D1834F7A6AEC
S2240231A009E000F08057B7F1805F02D17F4FBA6A01E07E4F7A68C0F3034583B27C4F07403A
S2240231C0B7F5401F0AD122F07062784F7F6827F07067DFF8D8C1CCF80470BDE000F48017B2
S2240231E0B7F5801F13D100F40017B7F5001F03D10327AF403E0402E0032707FA05F6B24397
S22402320000F0E047002FE8D142F07062A4E000F08077B7F1807F47D100F00407042F29D152
S22402322000F00077B7F1007F16D1C0F340573F0103FA07F7BA433CB15C4F796841F00101E4
S22402324041F07061796087E0584F796821F0010141F0706179607FE0C0F340573F0103FAC9
S22402326007F7BA43514F796821F0010141F07061796071E043F00407C0F3405C4FEA0C1C9E
S22402328007FA0CF7BA433CB1484F796841F0010141F0706179605FE0444F796821F00101ED
S2240232A041F07061796057E000F08067B7F1806F47D100F00807082F29D100F00077B7F130
S2240232C0007F16D1C0F340573F0103FA07F7BA433CB1364F796841F0080141F07061796097
S2240232E03AE0324F796821F0080141F07061796032E0C0F340573F0103FA07F7BA432B4F48
S224023300796821F0080141F07061796024E043F00807C0F3405C4FEA0C1C07FA0CF7BA43D9
S2240233203CB1224F796841F0080141F07061796012E01E4F796821F0080141F070617960FD
S2240233400AE0C0F340573F0103FA07F7BA4300F0E0470FB942F070622CB1C0F340573F01B0
S22402336003FA07F73A4300F00047B7F1004F02D10E4FFA6119E000F08047B7F1804F02D11B
S2240233800A4F3A6211E000F00057B7F1005F02D1064F7A6209E000F08057B7F1805F02D1E4
S2240233A0024FBA6201E0014F7A60F0BD000001400000307010B501211C2002F0BDF9012113
S2240233C0084602F0B9F901210148FFF7CBFE10BD000230002DE9F0410246002500260020D1
S2240233E000230024002791F803C00CF00F0591F803C00CF0100CBCF1000F03D091F802C0BE
S2240234004CEA050591F800C0BCF1000F31D0146800202BE04FF0010C0CFA00F3B1F800C00A
S2240234200CEA03069E4220D183004FF00F0C0CFA03F7BC4305FA03FC4CEA040491F803C051
S224023440BCF1280F06D14FF0010C0CFA00FCC2F814C00AE091F803C0BCF1480F05D14FF07F
S224023460010C0CFA00FCC2F810C0401C0828D1D31460B1F800C0BCF1FF0F34DD54680020F7
S2240234802EE000F1080C4FF0010808FA0CF3B1F800C00CEA03069E4221D183004FF00F0CB2
S2240234A00CFA03F7BC4305FA03FC4CEA040491F803C0BCF1280F05D100F1080C08FA0CF8B9
S2240234C0C2F8148091F803C0BCF1480F07D100F1080C4FF0010808FA0CF8C2F81080401C76
S2240234E00828CED35460BDE8F0810AB1016100E041617047004870471400002000487047A2
S2240235007003002000BFFEE71CB50446002C4ED0442221462648FDF781FB0121092002F020
S2240235200BF94FF43040ADF8040003208DF8060004208DF8070001A91E48FFF74BFF1E4810
S22402354002F01EFA0121880302F0D6F818491A4800F09AF81948FFF7FFFB0121084602F0F5
S224023560BBF8134914311548FFF7E8FC0E208DF8000000208DF801008DF8020001208DF833
S2240235800300684601F09EFF012202210B48FFF7D9FB01221146084802F01EFA012107483D
S2240235A0FFF7B4FC0121044800F042F800BF1CBD4C570020000C0140003800404400024020
S2240235C070B50446254625B12A6A5100A869FFF70DFA70BD08B502460092009808600098E5
S2240235E000F4004018B1034B009818430090009808BD00000000FFFF08B50246100E40EA4E
S2240236000220009000980860009800F4000018B1009840F07F400090009808BD08B5024623
S224023620100C40EA0240009000980860009808BD21B1828B42F48062828304E0828B4FF6DC
S224023640FF331A408283704701464FF08040828C79B10B48006800EB4003C3EBC01002EB49
S2240236600010084B1B68C01A80084FF47A73584308600020024B1860024802600020704760
S2240236804C010020540100202DE9F04F87B005460C464FF0000902274FF000084FF0010B15
S2240236A00026B246A88B4FF240010840A88302202884B5F81C90A068022801D100BF38E0BB
S2240236C0A08810B94FF0010B01E04FF0020B2748854200D100E000BF01A802F05FF8DDF80D
S2240236E004A0E088B0F5007F0AD14FEA1A2000EB80004000A168B0FBF1F0401D86B20BE085
S2240237004FEA4B10BAFBF0F000EB80004000A168B0FBF1F0401D86B20A20B6FBF0F606F0ED
S2240237200108A6EB0800C0F34F074FF6FF7000EA0828022F01DBFF2F02DD02274FF000087F
S224023740E08840EA080038432884A088A1890843618808432188084340F4006040EA09090C
S224023760A5F81C9007B0BDE8F08F00000038004001498860704700000030004010B5012067
S22402378002F000F800BF612002F08EF80028FAD045F2555000F02AF8012000F021F8054829
S2240237A00068C0F34F10FFF7E3FF00F011F800F003F810BD100000204CF6CC4001490860CF
S2240237C0704700000030004010B500F001F810BD4AF6AA200149086070470000003000405D
S2240237E00149486070470000003000400149086070470000003000402DE9F04100287BD016
S2240238000029FCD0C04A1278642A01DD642201E0BD4A127800EE902AB8EE600A9FEDBB1A9B
S22402382030EE010A9FEDBA1A20EE010ABCEEC00A10EE102AC27041F29C42525CB54B93F8B7
S224023840263092FBF3F403FB1423B24A1632D25CC27141F29E42525C022A13D0AE4A12786B
S2240238604270A94A1278827041F29E42525C0AB90022C271002242710272827142720270E5
S22402388002713DE141F24C430B4493F84430A3BB41F24C430B44D3ED0E1A41F294430B44D0
S2240238A09B7901EE103AB8EE411A31EE811A41F24C430B4483ED0E1A41F24C430B4493EDBF
S2240238C00E1A41F24C430B44D3ED101AB4EEE11AF1EE10FA53DB41F24C430B4493ED101A4F
S2240238E041F24C430B4483ED0E1A012341F24C440C4484F8443042E003E1FFE741F24C4343
S2240239000B4493F84430022B0BDA41F24C430B4493F844305B1C41F24C440C4484F84430B6
S2240239202DE041F24C430B44D3ED0E1A41F294430B449B7901EE103AB8EE411AF4EEC11A16
S224023940F1EE10FA14DB41F24C430B44D3ED0E1A41F294430B449B7901EE103AB8EE411AE8
S22402396031EEC11A41F24C430B4483ED0E1A06E09FED6A1A41F24C430B4483ED0E1AB2EE5E
S224023980040AC37801EE103AB8EE411A31EE401A41F24C430B44D3ED0E1A21EE211AF2EE01
S2240239A00C1A81EE212ABCEEC21A11EE103ADBB201EE103AB8EE411A31EE001ABCEEC11ACC
S2240239C011EE103ADDB2642D00DD6425C379514C94F82740A34201D1792241E04E4F3F787E
S2240239E01FB14D4F3F78792F01DB012301E04A4F3B78077990F800C0674518DB077990F859
S224023A0000C0A7EB0C074FF0090C97FBFCF80CFB187707EB4707BCB203F1790727444FF0FE
S224023A20790C97FBFCF80CFB1877FAB217E0077890F804C0A7EB0C074FF0090C97FBFCF8F1
S224023A400CFB187707EB4707BCB203F179073F1B4FF0790C97FBFCF80CFB1877FAB200BF02
S224023A602F4B1B682F4C236023461B68B3F57A7F00D3012641F294430B445B79BBB1294BB0
S224023A801B68962B01D203260EE0264B1B68B3F5967F01D2032607E0224B1B68B3F5167F30
S224023AA001D2022600E0012600231D4C23604270857041F24C430B4493ED0E1ABCEEC11A09
S224023AC011EE103A437141F294430B449B79037241F294430B445B798371467241F24C4365
S224023AE00B4493F83E30037041F24C430B4493F83C300371002341F294440C44637100BF77
S224023B0000BFBDE8F08100003C000020000020423333333FFC0200203D00002000000000B8
S224023B2034000020380000201CB504460121084601F002FE5E49206888425CD1206802F0B6
S224023B40EDFA00BF0121082001F0F6FD01210420FFF708FB00BF0121880301F0EDFD802064
S224023B60ADF8040000208DF8060004208DF8070001A95048FFF72EFC4020ADF804000320AC
S224023B808DF8060018208DF8070001A94948FFF721FC211D206802F053FB2068008A20F455
S224023BA00060216808822068808A20F02A00216888822068008A40F0400021680882012175
S224023BC0206802F023FB0121206802F013FB4FF4E06001F0AFFC25208DF8000001208DF80D
S224023BE0010000208DF8020001208DF80300684601F068FC5BE030492068884257D12068B4
S224023C0002F08CFA00BF0121042001F095FD00BF0121480401F070FD0820ADF80400002021
S224023C208DF8060004208DF8070001A92348FFF7D1FB0420ADF8040003208DF806001820B8
S224023C408DF8070001A91D48FFF7C4FB211D206802F0F6FA2068008A20F4006021680882CC
S224023C602068808A20F02A00216888822068008A40F04000216808820121206802F0C6FAED
S224023C800121206802F0B6FA4FF4E06001F052FC26208DF8000001208DF8010000208DF8F8
S224023CA0020001208DF80300684601F00BFC1CBD00380140000C0140004400400008014040
S224023CC070B504460025204600F038FA0546284670BD70B504460425204600F039FA05466F
S224023CE0284670BD70B504460425204600F056FA0546284670BD10B50446204600F078FA27
S224023D0010BD2DE9F04104460D4616460427204600F0BCF832462946204600F0D5FA074601
S224023D203846BDE8F08170B504460D4600262946204600F04BFB0646304670BD30B50346D8
S224023D400D4600213C2A07D07D2A05D0FE2A03D0BF2A01D0114600E000212C460AE0187836
S224023D60084481B25B1CFF2902D9A1F1FF0081B2601EC4B2002CF2D8C843C0B230BD70B506
S224023D8004460D4604262946204600F05DFB0646304670BD2DE9F04704460E4600212046D7
S224023DA0FDF740F9804601212046FDF73BF988EA000802212046FDF735F988EA0008042195
S224023DC02046FDF72FF988EA00084FEA881901212046FDF727F9804603212046FDF722F90B
S224023DE088EA000804212046FDF71CF988EA000805212046FDF716F988EA00086FEA0800CA
S224023E0049EAC010C7B2012E08D104F0C000B84201D0FF2504E004F03F0501E044EA07053D
S224023E202846BDE8F0872DE9F04104460D461646042732462946204600F056FD074638462B
S224023E40BDE8F08170B504460D461CB9284600F02BFF04E0012C02D1284600F01FFE70BD9A
S224023E6010B50446012C05D1002210210548FFF73CFB05E024B9002210210348FFF735FBD6
S224023E8010BD000000100140000C014038B5044600200090012C15D10121102001F04CFC2B
S224023EA01020ADF800008DF8030003208DF8020069461048FFF78EFA012210210D48FFF7D0
S224023EC014FB15E0A4B90121082001F035FC1020ADF800008DF8030003208DF80200694658
S224023EE00548FFF777FA012210210348FFF7FDFA38BD000000100140000C014010B50446D9
S224023F00012C05D1012210210548FFF7EEFA05E024B9012210210348FFF7E7FA10BD000013
S224023F2000100140000C01402DE9F04104460D461646042732462946204600F011FD0746D9
S224023F403846BDE8F08170B504460D462946204600F04CFD70BD10B50446204600F050FD17
S224023F6010BD000010B52B48006800284FD02A48006800284BD027484068002847D02648A5
S224023F804068002843D02348806800283FD02248806800283BD000F0A9F80020FFF7AEFFD4
S224023FA00120FFF7ABFF00201C4908701C4908604FF47A601B49086000201B4908601B4837
S224023FC000210160416081600022124880680168406862F382010F4A9268116050600022F3
S224023FE00C4880680168406862F30411094A9268116050600022074881680868496862F3C5
S2240240004710044A926810605160002400E00124204610BDA8010020E80100202800002063
S2240240202C00002030000020340000206203002010B500242948007820B1012834D002280A
S22402404048D145E02648006868B90020FFF738FE012804D00020FFF733FE022823D1012055
S2240240601E4908701FE00020FFF72AFE012806D11C4800F065FF01201849087013E0012057
S224024080FFF71EFE02280ED11748006800F008FD15480068401C144908600846006803287B
S2240240A001D30020086016E00120FFF709FE012804D00120FFF704FE022808D10020FFF75A
S2240240C0CFFE0120FFF7CCFE02200449087002E0042400E000BF00BF204610BD2800002061
S2240240E030000020680100202C00002010B500F057FE0B4A0B490020FFF703FE0A49002057
S224024100FFF711FE094A0A490120FFF7FAFD09490120FFF708FE00200749086010BD0000CB
S22402412088180020340100208D4F02086018002020010020914E02081C0200200146002016
S224024140024B53F8212002B1D07E70471018002070B505460F4850F825600F4850F82540E7
S2240241600120E076002020736073A073002240F22551306801F0A3FF00226021306801F007
S2240241809EFF002240F64601306801F098FF002070BD0000F80000201018002070B505469F
S2240241A0114850F82540114850F825600020B0762021206801F0A8FF00BF00BF012240F252
S2240241C02551206801F07BFF01226021206801F076FF012240F64601206801F070FF022033
S2240241E0F0760020B07370BDF8000020101800202DE9F04106460027314850F82650314818
S22402420050F826404FF48071286802F00BF840B1304600F06FF94FF48071286801F046FF77
S22402422036E02021286801F0FDFF60B12021286801F03CFF284600F021FE074639463046D6
S22402424000F09EF924E00221286801F0EBFFF8B10221286801F02AFF284600F00FFE074610
S2240242600820A076E07E092806D1606968B1214630466269904708E0E07E072805D160691E
S22402428018B121463046626990473046FFF786FF0821286801F0C6FF78B10821286801F09C
S2240242A005FF284600F0EAFD07460D20A076606918B12146304662699047BDE8F0810000F7
S2240242C0F8000020101800202DE9F04706460F4614464FF00008C146344850F8265034482B
S2240242E040F82640334840F82670C4F82480787998B1387988B94FF496403860002084F8F7
S2240243002200012084F8210000202B4941F826002A4988552A4941F8260038686860002118
S2240243202981A98169810C21E981002129822846FFF7FAFB2021286801F0E6FE012240F201
S2240243402551286801F0BBFE01226021286801F0B6FE012240F64601286801F0B0FE19499C
S224024360885701F0D2FF0220E076002020736073A0732074E07384F82000E06142F210710B
S2240243803868884203D980200F49885502E0F8200D498855787908B1387918B101212868F8
S2240243A001F028FF4846BDE8F0870000F800002010180020241800203818002016010020D1
S2240243C04C1800200C0100201101002010B50246024C54F822305869596110BD101800206A
S2240243E02DE9F05F05460E4617469846154850F82500D0F80C90134850F8250090F810A049
S224024400C3460024BAF1FF0F01D1A34610E0B9F1000F0DD0002408E019F80400584502D1DD
S2240244204FF0000B03E0601CC4B25445F4DB00BF5A4639463046FFF781FC04462046BDE8D2
S224024440F09F0000241800202DE9F04705460E464FF00008244850F82590244850F8257085
S224024460234850F82540E07E012800D100E00020824699F8040020B13F2E02D8BAF1000F96
S22402448002D04FF001082BE0A07B10B14FF0020826E0267600213046FFF77CFC607603202B
S2240244A0E0760020A0760120A0732021386801F02BFE012240F64601386801F000FE00BF4C
S2240244C0386801F017FF00BF00BF3868008800F040000028F9D000BF6421284600F086FA45
S2240244E04046BDE8F087000024180020F8000020101800202DE9F04106461E4850F8267080
S2240245001D4850F826501D4850F826404FF48071286801F0CBFD0021286801F0F5FD00222B
S22402452040F64601286801F0CAFD3879012813D1E07E03281CD10120A0730520E07620218B
S224024540286801F0B3FD5521284600F09CFC6421304600F04BFA0BE00120A0730320A0762F
S224024560606918B121463046626990470420E076BDE8F08124180020F800002010180020D7
S22402458070B504460D46114850F82460F07EC01E072817D2DFE800F0060405070C161100C9
S2240245A000BF00BF00BF2946204600F011F80AE02946204600F0B2F805E02946204600F0E6
S2240245C001F900E000BF00BF70BD0000101800202DE9F04106460D464D4850F826704D4819
S2240245E050F826804C4850F82640E07E032806D0042805D0052816D006286FD129E084E036
S224024600552D04D10420A0760620E0760AE00520A076606918B121463046626990473046DA
S224024620FFF7BCFD71E0552D06D10620E076617E384600F028FC0BE00520A0760020A073D4
S2240246400220E076606918B121463046626990475BE098F80400012828D1607EA84218D128
S2240246600620A076207C012809D10720E0760120A07360730021386801F046FD43E000209C
S224024680A073606900283ED0214630466269904739E00720A0760020A0730220E0766069B8
S2240246A028B321463046626990472CE001212846FFF770FB20766576207EFF2818D0062058
S2240246C0A076207C01280AD10720E0760120A07360730021386801F017FD14E014E00020CB
S2240246E0A073606918B121463046626990470AE00720A076606918B1214630466269904757
S2240247003046FFF74BFD00E000BF00BFBDE8F081F8000020241800201018002070B506463D
S2240247200D46274850F82640A17A207A401C814205D9606805706068401C606005E0A07A30
S224024740217A401A012800D1E572207A401C2072207AA17A884232D1A07A6168401E081A9F
S2240247606060637EA07A401EC2B230466168FFF737FEE17A884215D10C20A0760820E07670
S224024780606918B12146304662699047207CB0B90020A0736073E07E012810D03046FFF723
S2240247A0FDFC0CE00A20A076606918B12146304662699047002060733046FFF7EFFC70BD45
S2240247C0101800202DE9F05F05460E464FF00109434850F82580434850F825408021D8F81C
S2240247E0000001F01FFD88B90920A076606918B12146284662699047E07B20B90020207335
S2240248002846FFF7CBFC4FF0000934E0607A217A401AC7B2012F04D1E07AB04201D001207F
S22402482000E00020824620680078B04203D0012F01D0012000E000208346BBF1000F02D16B
S224024840BAF1000F11D00920A076606918B12146284662699047E07B20B900202073284619
S224024860FFF79CFC4FF0000905E02068401C2060207A401C2072B9F1000F2ED0207A617A5E
S22402488088420FDA607A217A401A012804D1E17A404600F0F8FA20E020680178404600F057
S2240248A0F2FA1AE00B20A0760A20E076002240F22551D8F8000001F002FC606918B12146C8
S2240248C0284662699047E07B38B900202073E07E012802D02846FFF761FCBDE8F09F000074
S2240248E0F8000020101800202DE9F04706460F4615464FF00008184850F82690174850F8BC
S2240249002640E07E012800D100E000208246082D03D815B1BAF1000F02D04FF0010817E069
S224024920A07B10B14FF0020812E06760681CA072002020720720E0760020A0760120A07363
S2240249406073002020740021D9F8000001F0DCFB4046BDE8F0870000F8000020101800200D
S2240249602DE9F04706460F4615464FF000091D4850F826801C4850F82640E07E012800D1E2
S22402498000E000208246082D03D815B1BAF1000F02D04FF0010921E0A07B10B14FF0020976
S2240249A01CE0637E2A4639463046FFF719FDE0722760681C6072002020720920E076002022
S2240249C0A0760120A07320730021D8F8000001F09BFB20680178404600F055FA4846BDE882
S2240249E0F0870000F800002010180020034B53F82020002382F82030D161704710180020E2
S224024A0070B50546244850F82540E67E032E06D0052E05D0072E24D0092E39D10AE000BF80
S224024A20E06918B92846FFF7B9FB02E0E069401EE0612EE0E06980B9012084F82000E07BCB
S224024A4070B9606918B12146284662699047002020732846FFF7A2FB02E0E069401EE0619F
S224024A6017E0E06980B9012084F82000207C70B9606918B121462846626990470020607338
S224024A802846FFF78BFB02E0E069401EE06100E000BF00BF70BD00001018002070470000D1
S224024AA02DE9F0410546032D7ED2012000FA05F63046FEF703F9002876D0FEF71FFD044697
S224024AC0FEF718FD0746012E04D0022E77D0042E6CD1D6E0002C6DD06E4800680168406841
S224024AE0490F60F3C401052904D0002141F29D4001555FE0012141F29D40015521466648DA
S224024B00FEF77AFE65480278624801680868496862F347005F4A1268106051605E48427886
S224024B205C4801680868496862F39C50594A126810605160584881785648026810685268EE
S224024B4061F3DA425349096808604A605248C179504800680268406861F3D1324D4909687B
S224024B600A6048604C4841794A4800680268406861F38D20474909680A6048604648827925
S224024B80444800680168406862F3C710414A1268116050604048017A3E48006802684068B4
S224024BA061F309203B4902E072E008E06AE009680A6048603749086800F0C2F963E03548A9
S224024BC0006801684068490F60F3C40105290BD1334802782F4841680868496862F3070049
S224024BE02C4A5268106051602E48006801280BD16C22284841680868496862F30601254AE7
S224024C005268106051600AE04C22224841680868496862F306011F4A526810605160412223
S224024C201C4841680868496862F30F21194A5268106051609FB197ED000AF2EE040A20EEA2
S224024C40200ABCEEC00A10EE100A12494A681168526860F317420F48406801604260114850
S224024C6090F828000B494A681168526860F3C71208484068016042600649486800F060F9D5
S224024C8001E000E000BF00BF3046FEF723F800BFBDE8F081E8010020620300203D00002088
S224024CA03C000020FC02002070B504462546002D4BD00020254908704FF47A602449086059
S224024CC0287E392814D1234B1B689A7A214B1968214B1868FBF7A2FF1E4801680868496880
S224024CE0C0F346001D490870012000F0D3FF16E0287E3A2813D1174B5B689A7A154B5968B7
S224024D00154B5868FBF78AFF12484168086849687F21084012490870022000F0BBFF002224
S224024D200C4881680868496862F30410094A9268106051600022074881680868496862F367
S224024D404710044A92681060516070BD2800002030000020A8010020E80100203D00002098
S224024D603C00002010B50C480068401C20B10A480068401C0849086008480068401C20B16E
S224024D8006480068401C054908600120FFF7E3F80020FFF7E0F810BD480100204C010020C1
S224024DA010B586B00121084600F0A6FC1C208DF8040000208DF8050001208DF806008DF84F
S224024DC0070001A800F07EFB1D48806840001D49B0FBF1F00121C1EB9004A0B2ADF80800D3
S224024DE040F2CF70ADF80C000020ADF80A00ADF80E008DF810008DF811008DF812008DF8C1
S224024E0013008DF814008DF8150002A94FF0804001F096F8A1B20122900701F071F8012292
S224024E201146900701F063F80121880701F06BF80020054908600549086006B010BD00001D
S224024E402803002040420F00480100204C0100200848006820B107480068401E0549086045
S224024E6005480068401C20B103480068401C02490860704730000020340000200146086875
S224024E808088C0B27047C1F3080203689A80704770B506460C466569A07E0D2839D2DFE82A
S224024EA000F03B373A323C39072031302F24280064210120FFF747F81A480078012806D1F0
S224024EC01948027819490120FFF72EF808E01548007828B91648027816490120FEF7A3FFC4
S224024EE01CE00120FEF7F5FE18E00120FEF7FAFE14E0204600F020F80120FEF7F3FE0DE04A
S224024F0000BF00BF00BF64210120FFF71CF805E004E000BF00BF00BF00BF00BF00BF2846EC
S224024F2070BD00001A02002019020020080200201802002010020020014601207047000011
S224024F4010B5044604B910BD607A012808D1A07A0A490870A27A21460948FBF75FFE04E0E9
S224024F60607A10B9A07A07490870607A06490870217A0120FEF703FF00BFE4E7190200208C
S224024F8008020020180200201A0200202DE9F04107460D466E69A87E0D2871D2DFE800F057
S224024FA08B848A7F8C89077577787661680064210020FEF7C8FF00242DE0424850F824008B
S224024FC0007A297E884225D13E4850F82400407A01280AD13B4850F82400827A394850F885
S224024FE024100020FEF71FFF69E0364850F82400407A78B9334850F82400827A314850F881
S22402500024100020FEF790FF012101FA04F000F041FE54E0641C032CCFD3287E3C2805D10C
S224025020082229490020FEF7FEFE48E0287E3D2813D12648007828B1082225490020FEF739
S22402504073FF09E04FF4FA6022490860284603F0B3FA0020FEF746FE31E00020FEF742FEB1
S2240250602BE0284600F052F90020FEF73BFE24E0284600F09FF820B90020FEF72AFE1EE01A
S22402508016E00020FEF72EFE17E000BF00BF00BF284600F023F80020FEF724FE0DE064217C
S2240250A00020FEF750FF08E001200B49087004E000BF00BF00BF00BF00BF00BF00BF30461D
S2240250C0BDE8F081A80100200002002058010020F8010020300000201B020020817E07297A
S2240250E006D0082918D009293ED00A2950D127E02F498A6811685268C1F3421107290AD26F
S22402510007232B4989680A68496863F34712284B9B681A6059603CE025498A6811685268CF
S224025120C1F3421106290AD20623214989680A68496863F347121E4B9B681A60596028E059
S2240251401B498A6811685268C1F3421105290AD20523174989680A68496863F34712144B04
S2240251609B681A60596014E011498A6811685268C1F3421104290AD204230D498A68116887
S224025180526863F347110A4B9B6819605A6000E0704700BF0123064989680A68496863F3E2
S2240251A00412034B9B681A60596000BFF0E70000A801002070B50446207E3C2876D12046D1
S2240251C003F0FAF900204E49087060680078F8B960684078FF281BD160688078FF2817D160
S2240251E06068C078FF2813D160680079FF280FD160684079FF280BD160688079FF2807D111
S2240252006068C079FF2803D101200870002070BD606800787F2805D06068007839490978A6
S22402522088426AD160688078B22861D16068007963685B7940EA0321606880796368DB7988
S22402524040EA032247F6FF70814201D0712906D14FF6FF70824203D0B2F5A46F00D047E04B
S22402526000BF002003E0FF23274D2B54401C0928F9D300BF60680078234B18706068C07802
S22402528020B1012813D0202828D11BE006201E4B5870F22098707120D870002018712020BB
S2240252A05871052098710020D8711FE021E00520154B5870F22098700020D8701871587166
S2240252C0987113E00520104B5870F22098700120D870002018715871987107E003200A4B26
S2240252E058707F209870B220D87000BF00BF00BF03E021460020FEF7A5FD012087E7000051
S2240253005801002020020020F801002010B5044621460020FEF796FD012010BD00BFFEE702
S22402532010B504462046FCF799FC2046FDF78AF82046FDF7F5F92046FDF7B2FB2046FDF7E4
S22402534067FC2046FDF766FA10BD000010B592B00024442101A8FBF77AFC4248007D38B9C3
S2240253600021404881810221C181002181601FE03C48007D012807D105213A488181042144
S224025380C1813949816013E03648007D022808D10321344881810421C1814FF47F018160C3
S2240253A006E005212F4881810421C181002181602C48006930B12B49086903F025F9002123
S2240253C0284801612748C089400226494860486803F07CFA234908610846006900283AD00C
S2240253E00020ADF8060008468089ADF808000020ADF80A004BF6803003900020ADF81000AF
S2240254004FF48070ADF804000020059017480690084601690791002108914068410809916A
S22402542000210A9180210B9149000C9189000D9120210E9109020F91002110910C4811901D
S22402544001A8FEF761F84FF4A5510A48FBF7FFFB0848FCF7F3FC0348006900B901242046AD
S22402546012B010BDFC0200200000FFFF0C380040C13502087003002010B503490348FCF714
S2240254806BFD0446204610BD215302087003002010B5FDF7C9FA10BD10B5802000F022FA55
S2240254A070B14FF4803000F07FF80121082000F0A1F80121102000F09DF8802000F044F8F4
S2240254C010BD000070B5002100230F22C47804B3154C246804F4E064C4F5E064210AC1F168
S2240254E00403CA40447804FA03F184781440214309010E4C0678A155047804F01F050124A1
S224025500AC4005786D11AD0005F1E025C5F8004109E0047804F01F050124AC40044D06789A
S224025520761145F8264070BD0CED00E000E400E080E100E002490143024A1160704700002C
S2240255400000FA050CED00E001498872704700000010024001460020034AD06A20F00F0012
S2240255600843D062704700000010024002460020064BD86A20F4F87009B1104302E01043E5
S22402558020F48070014BD862704700000010024001460020034A506820F0F000084350600A
S2240255A070470000001002401149096821F480310F4A11601146096821F480211160B0F5EC
S2240255C0803F03D0B0F5802F0ED106E00849096841F48031064A116007E00549096841F4D5
S2240255E0A021034A116000E000BF00BF704700000010024029B1064A527A0243044B5A7268
S22402560004E0034A527A8243014B5A72704700000010024001460020034A506820F4E060E0
S22402562008435060704700000010024001460020034A506820F4605040EAC10050607047DD
S2240256400010024002460020044B5868044B184042EA01031843014B58607047001002403B
S224025660FFFFC0F701460020034A506820F003000843506070470000001002401248006829
S22402568040F0010010490860084640680F4908400D494860084600680D4908400A4908606E
S2240256A00846006820F4802008600846406809490840054948604FF46050C86208634FF4C0
S2240256C01F008860704700000010024000C0FFF8FFFFF6FEFFFF00F729B1064A52690243EB
S2240256E0044B5A6104E0034A52698243014B5A61704700000010024029B1064AD26902432E
S224025700044BDA6104E0034AD2698243014BDA61704700000010024029B1064A126902434D
S224025720044B1A6104E0034A12698243014B1A61704700000010024029B1064A92690243ED
S224025740044B9A6104E0034A92698243014B9A61704700000010024029B1064AD26802430E
S224025760044BDA6004E0034AD2688243014BDA6070470000001002400149C86470470000AD
S22402578000004242014908607047000080044242014908667047000000004242F0B5002154
S2240257A000BF002200250024384E7668384F06EA0702364E766806F4803502F000661EB994
S2240257C0022606EB924204E04FF4F876C6EB9246721C1DB92F4E02FB06F30BE02B4E76689E
S2240257E006F400361EB12B4E02FB06F302E02A4E02FB06F3254E766806F00C0121B1042991
S22402580005D0082908D105E0234E066007E0224E066004E0036002E01F4E066000BF00BFAF
S2240258201A4E766806F0F00109091C4E745C0668E6404660154E766806F4E061090A174EBA
S224025840745C4668E6408660104E766806F46051C90A124E745C4668E640C6600B4EF66A1A
S22402586006F00F010E4E745C4668B6FBF4F64661064EF66A06F4F871090901F00F06094F78
S22402588037F81640B3FBF4F60661F0BD0010024000003C0800093D0000127A007C8A020858
S2240258A08C8A02089C8A020810B501460022002300204A11012A02D1094C236806E0022AD5
S2240258C002D1074C236A01E0054C636A01F01F02012494401C400CB1012000E0002010BDFD
S2240258E00010024001460020034A92680A400AB1012000E000207047001002400248406880
S22402590000F00C00704700000010024010B50820FFF7E8FF48B10820FFF716FE3120FFF73F
S224025920C3FF10B10120FFF733FF1020FFF7DAFF48B11020FFF708FE3920FFF7B5FF10B1AC
S2240259400220FFF78FFE10BD38B5002000900024002500BF3120FFF7A7FF05460098401CFD
S22402596000900098B0F5004F01D0002DF2D03120FFF79AFF08B1012400E00024204638BD27
S22402598010B504461148844208D101218014FFF7E3FE0021A014FFF7DFFE16E00C488442B4
S2240259A008D101210014FFF7B7FE00212014FFF7B3FE0AE00748844207D10121C013FFF768
S2240259C0ABFE0021E013FFF7A7FE10BD0030014000380040003C00401AB183880B4383800F
S2240259E002E083888B438380704770470EB500200290019000903848006840F48030364993
S224025A00086000BF34480068C0F3404001900098401C00909DF8040018B90098B0F5004F36
S224025A20F0D12D480068C0F3404001909DF8040018B92A482A4908600EBD2A48006820F091
S224025A400700284908600846006840F0010008602148406820494860084640684860084602
S224025A60406840F480604860084640681E49084019494860084640680290029840F4803006
S224025A800290029840F400300290029840F420100290029848600846006840F080700860CD
S224025AA000BF0D48006800F000700028F9D00A48406820F00300084948600846406840F0E6
S224025AC00200486000BF0448406800F00C000828F9D100BFB0E700000010024000127A0038
S224025AE00000002000200240FFFFC0F710B5FFF7C5FD4FF48030FFF757FDFFF725FF10493B
S224025B00087008460078012817D11020FDF7C2FA0020FDF7FBFA0020FFF73AFD0020FFF7E3
S224025B2085FD0020FFF776FD0120FFF79BFD00BFFFF7E4FE0428FBD101E0FDF743FA10BD36
S224025B40040000202DE9F04781468846B8F1000F01D1002001E04FF440308246FFF78EFDB1
S224025B60B8F1010F0DD14FF48030FFF71DFDFFF7EBFE3F49087008460078012801D0FDF7F1
S224025B8021FA3C49A9EB0100894530D00CDC3A484844A0B139490844B8B10844D8B1384927
S224025BA0084400283DD11CE03349084420B33549084438B349100844002832D129E0002512
S224025BC04FF48014002600272DE001254FF4E0140026002727E001254FF42014AE02002768
S224025BE021E001254FF44014AE0200271BE00225254C6E02002716E00225244C4FF4A06609
S224025C006F0210E00325224C4FF4A0664FF4806709E004254FF4803A1B4C4FF4A0662F0223
S224025C2001E0FDF7CFF900BF2846FDF76FFA0020FFF7AEFC3846FFF7F9FC3046FFF7EAFCBB
S224025C4021465046FFF7FEFC0120FFF7A1FD00BF3920FFF729FE0028FAD00220FFF702FD5D
S224025C6000BFFFF74BFE0828FBD1BDE8F08700000400002000A24A0400CA91FE00E548FF6E
S224025C8000EE85FF00B817FE0000040800001C0800003C08024909680143014A11607047D7
S224025CA01C02002010B500F001F810BD10B502F0D5FE01F0A1FE01F0FFFFFBF7A0F9FFF79A
S224025CC0E7FBFFF7C5F810BD70B5FFF70FFF01211B48FFF737FF0120FFF74EFD00F038F8FF
S224025CE01848FFF75BFD174840684FF47A72B0FBF2F1481EB0F1807F01D301201BE0481ECF
S224025D004FF0E022506150170F22002804DB13071C0E0D4B1C5406E013071D0E0B4B00F06E
S224025D200F04241F1D5500BF00204FF0E022906107201061002008B1FDF744F970BD0000B4
S224025D40004495082803002000E400E018ED00E010B5002100200022264B5B6803F00C010B
S224025D6021B1042906D0082932D107E0224B234C236031E0204B214C23602DE01D4B5B6829
S224025D801F4C03EA04001B4B5B6803F4803200F000631BB9022303EB904004E04FF4F87332
S224025DA0C3EB9043581C22B9164B4343134C23600DE0104B5B6803F4003323B1114B434358
S224025DC00E4C236003E00C4B43430C4C236003E0094B0A4C236000BF00BF064B5B68C3F3EC
S224025DE00313094CE15C054B1B68CB40034C236010BD00000010024000127A000000002079
S224025E0000003C0800093D006C8A020810B52448006840F47000224908602248006840F0DF
S224025E20010020490860084640681F4908401D494860084600681D4908401A490860084658
S224025E40006820F4802008600846406818490840144948600020C86208634FF41F00886014
S224025E600846C06940F08050C8611248C06840F001001049C8600B48C06920F08050094999
S224025E80C8610D48006840F090000B490860FFF7ADFD4FF0006002498039086010BD000021
S224025EA088ED00E00010024000C0FFF8FFFFF6FEFFFF00F7007000400020024010B5FFF7C9
S224025EC003FFFDF75BFCFDF775FA10BD10B50121880700F023F828B10121880700F003F848
S224025EE0FEF740FF10BD02698A43026170471AB183890B43838102E083898B4383817047A8
S224025F0001858282704721B1026842F00102026003E0026822F001020260704730B50246BE
S224025F20002000230024156905EA0103958905EA010413B10CB1012000E0002030BD0000E1
S224025F400A46002101684D4B98420ED04C4B98420BD0B0F1804F08D04A4B984205D04A4BA3
S224025F60984202D0494B984203D121F0700153881943474B984206D0464B984203D021F4DE
S224025F804071D3881943016093888385138803853A4B984202D03A4B984201D1137A038673
S224025FA0012383820168354B98420ED0344B98420BD0B0F1804F08D0324B984205D0324BEB
S224025FC0984202D0314B984206D1537A13B141F4006101E021F40061B0F1804F08D0294BA7
S224025FE0984205D0284B984202D0284B98420DD1937A13B141F4805101E021F48051D37AB6
S22402600013B141F4005101E021F40051B0F1804F05D01C4B984202D01B4B984206D1137BEB
S22402602013B141F4804101E021F48041134B98420BD0134B984208D0B0F1804F05D0114B24
S224026040984202D0104B984206D1537B13B141F4004101E021F4004101604168B0F1804FC8
S22402606002D0094B984206D1937B13B141F4807101E021F48071416070470000002C01409E
S224026080003401400004004000080040000C0040001000400014004010B50020FDF72BFE06
S2240260A010BD10B50120FDF726FE10BD01F40072B2F5007F00D100BFCA4302807047F0B539
S2240260C00346002400260025002040F66A17B94200D100BF1846C1F3421401F01F060127F9
S2240260E007FA06F5012C01D10C3004E0022C01D1103000E014301AB107682F43076002E025
S2240261000768AF430760F0BD028A4FF6DF731A400282028A0A4302827047000010B50446DF
S2240261202D48844209D101218803FFF715FB00214FF48040FFF710FB4CE02848844209D12F
S22402614001214804FFF7E8FA00214FF40030FFF7E3FA3FE02248844209D101218804FFF7BE
S224026160DBFA00214FF48020FFF7D6FA32E01D48844209D10121C804FFF7CEFA00214FF452
S2240261800020FFF7C9FA25E01748844209D101210805FFF7C1FA00214FF48010FFF7BCFA9B
S2240261A018E01248844209D101214804FFF7D4FA00214FF40030FFF7CFFA0BE00C4884425C
S2240261C008D101218804FFF7C7FA00214FF48020FFF7C2FA10BD00000038014000440040FA
S2240261E000480040004C004000500040005001400054014021B1828942F40052828104E082
S22402620082894DF6FF731A408281704721B1028A42F48042028204E0028A4BF6FF731A404C
S2240262200282704702460020B1F5007F00D100BF13880B400BB1012000E000207047000085
S2240262402DE9F04786B005460F460024A24600BF00BF0026B88900B100BF2E462C8A4CF647
S224026260FF700440F88804432C82AC894EF6F3100440B88839890843798908430443AC8121
S224026280AC8A4FF6FF400440B8890443AC826846FFF784FA1448864205D01448864202D032
S2240262A01348864202D1DDF80CA001E0DDF808A00AEBCA0000EB0A1039688900B0FBF1F880
S2240262C06420B8FBF0F004012009642101FB1089322000EB0910B0FBF1F000F00F00044330
S2240262E02C8106B0BDE8F087003801400050014000540140818941F0010181817047C1F3CF
S22402630008028280704700BFFEE7002809DB00F01F02012191404209920002F1E022C2F873
S224026320001170472DED020B019820F0004001909DED000B02B0704770B5D94B00242DED68
S224026340020B2DED108BDDE91010984205DA20F000429A4201D809D141B19DED100BBDECB4
S224026360108B02B0BDE8704000F0F6BAB0F5801F26DA11430BD0002813DA012000F018FB28
S224026380BDEC108B02B0BDE8704000F0F1BA022000F00EFB00F0C8FA51EC100B81F0004139
S2240263A09EE06FF035049FEDC00B53EC102B9DED100B51EC100BFAF7FCFCCDE910010846F4
S2240263C004EB2051C0F31304B948A1F2FF31204400F4801080F07F6282F04052224301EB3A
S2240263E020559FEDB50B119253EC102B9DED100B51EC100BFAF7D7FC41EC180BA01CC0F338
S22402640013009FEDAFDB9FEDB0EBB14E7E4403286CD296ED000B51EC180B53EC102BFBF7A1
S22402642057F91DD1002D01BF96ED000BBDEC108B02B070BD2846FAF7B5FD41EC180B53ECD9
S2240264401D2BFAF7B6FC41EC190B53EC1E2B51EC180BFAF7AEFC53EC192BFAF703FC3FE0E4
S2240264609FED9D0B51EC180B53EC102BFAF7A1FC9FED9B1B53EC112BFAF798FC41EC190BE6
S22402648053EC182B51EC180BFAF793FC53EC192BFAF78FFC41EC190B002D04BF53EC192BD0
S2240264A051EC180B1AD02846FAF77CFD41EC1A0B53EC1D2BFAF77DFC53EC192BFAF776FC8A
S2240264C053EC182BFAF76FFC41EC180B53EC1E2B51EC1A0BFAF76DFC53EC182BFAF763FC71
S2240264E0BDEC108B02B041EC100B70BD9FED7E0B51EC180B53EC102BFAF7B4FB41EC100B53
S22402650051EC180B53EC102BFBF773F841EC190B2846FAF747FD41EC1B0B53EC192B51EC36
S224026520190BFAF746FC41EC1A0B714853EC1A2B261851EC1A0BFAF73CFC41EC1F0B6D4899
S224026540C4F1510404F5D724B0EE4F0AF0EE6F0A0321784400F06CF953EC1F2B51EC100BD2
S224026560FAF727FC41EC1C0B6348B0EE4F0AF0EE6F0A0421784400F05BF953EC1A2B51ECCD
S224026580100BFAF716FC344353EC1C2BFAF76AFB41EC1C0B002C4CDD9FED510B51EC180B92
S2240265A053EC102BFAF705FC53EC182BFAF701FC41EC1A0B55B353EC1D2B51EC1B0BFAF7C3
S2240265C0F8FB41EC1D0B53EC1C2B51EC1A0BFAF749FB53EC192BFAF7ECFB53EC1D2BFAF77C
S2240265E041FB53EC1A2BFAF7E1FB53EC182BFAF7DAFB41EC180B53EC1E2B51EC1B0BFAF793
S224026600D8FB53EC182BFAF7CEFB69E753EC1C2B51EC1A0BFAF726FB53EC192BFAF7C9FBE2
S22402662053EC1A2BFAF7C2FB53EC182BFAF7BEFB56E735B353EC1D2B51EC1B0BFAF7B9FB41
S22402664041EC1A0B53EC1C2B51EC180BFAF7ABFB53EC192BFAF7ADFB53EC1A2BFAF7A3FB35
S22402666053EC182BFAF79FFB41EC180B53EC1E2B51EC1B0BFAF79DFB53EC182BFAF793FB41
S2240266802EE753EC1C2B51EC180BFAF78CFB53EC192BFAF78EFB53EC182BFAF787FB1FE788
S2240266A00000F07F000000000000000000005043645F090000000000000000000000F03FD6
S2240266C0763C7935EF39EA3D0000E0FE422EE63FA03E000000000000555555555555D53FA1
S2240266E0000000000000E03F000000000000004086EBF9FF223D0000183D00000000000017
S22402670070B5414A00252DED020B2DED048BDDE90404944205DA24F00041914201D809D16F
S22402672040B19DED040BBDEC048B02B0BDE8704000F012B9B4F5801F26DA08430BD0002C34
S22402674013DA012000F034F9BDEC048B02B0BDE8704000F00DB9022000F02AF900F0E4F811
S22402676051EC100B81F0004146E09FED290B6FF0350553EC102B9DED040B51EC100BFAF72D
S22402678018FBCDE904010C4605EB2450A0F2FF30C10F40F2FF32521A62F31F540844FAF709
S2240267A001FC05949DED040B41EC180B51EC100B01F072FF9FED181B53EC112BFAF7F9FA7B
