:020000040800F2
:10000000582D0020B9010008CD0800089D07000800
:10001000C50800087B020008551200080000000017
:10002000000000000000000000000000050B0008B8
:100030007F02000800000000CF0100080D0C00083E
:10004000D3010008D3010008D3010008D301000840
:10005000D3010008D3010008D3010008D301000830
:10006000D3010008D3010008D3010008D301000820
:10007000D3010008D3010008D3010008D301000810
:10008000D3010008D3010008D3010008D301000800
:10009000D3010008D3010008D3010008D3010008F0
:1000A000D3010008D3010008D3010008D3010008E0
:1000B000510D0008D3010008D3010008D301000846
:1000C000D3010008D3010008D3010008D3010008C0
:1000D000D3010008870F0008D3010008D3010008EE
:1000E000D3010008D3010008D3010008D3010008A0
:1000F000D3010008D3010008D3010008D301000890
:10010000D3010008D3010008D3010008D30100087F
:10011000D3010008850F0008D3010008D3010008AF
:10012000D3010008D3010008D3010008D30100085F
:10013000D3010008D3010008D3010008D30100084F
:10014000D3010008D3010008D3010008D30100083F
:10015000D3010008D3010008D3010008D30100082F
:10016000D3010008D3010008D3010008D30100081F
:10017000D3010008D3010008D3010008D30100080F
:10018000D3010008D3010008D3010008D3010008FF
:10019000D3010008D3010008DFF810D000F030F8D8
:1001A0000048004795340008AFF30080582D002028
:1001B00080F30888704700000648804706480047DB
:1001C000FEE7FEE7FEE7FEE7FEE7FEE7FEE7FEE707
:1001D000FEE7FEE7110C00089901000840EA010360
:1001E0009B0703D009E008C9121F08C0042AFAD2ED
:1001F00003E011F8013B00F8013B521EF9D27047B1
:10020000064C074D06E0E06840F0010394E8070063
:1002100098471034AC42F6D3FFF7C2FF0035000810
:100220002035000870B58C1810F8015B15F0070335
:1002300001D110F8013B2A1106D110F8012B03E07F
:1002400010F8016B01F8016B5B1EF9D12B0705D487
:100250000023521E0DD401F8013BFAE710F8013BD0
:10026000CB1A921C03E013F8015B01F8015B521EEC
:10027000F9D5A142D8D3002070BD00BFFEE770477A
:100280000249C9680143014AD16070470020024019
:1002900030B5044606257C20FFF7F2FF4FF43020EE
:1002A00000F08CF80546062D17D10D48006940F086
:1002B00002000B49086108464461006940F04000B3
:1002C00008614FF4302000F079F8054604480069D1
:1002D00043F6FD71084002490861284630BD000020
:1002E0000020024006201249C96801F0010109B14D
:1002F00001201CE00E49C96801F0040109B1032086
:1003000015E00B49C96801F0080109B104200EE0AD
:100310000749C96801F0100109B1052007E0044947
:10032000C96801F0400109B1072000E006207047CC
:10033000002002400348006940F080000149086144
:10034000704700000020024078B504460D4606269E
:100350000020009004F0030010B10926304678BD5B
:100360007C20FFF78DFF4FF4005000F027F8064681
:10037000062E12D10A48006940F0010008490861C0
:1003800025604FF4005000F019F806460448006953
:1003900043F6FE710840024908613046DFE700007D
:1003A0000020024002480349486003484860704703
:1003B0002301674500200240AB89EFCD00B502461E
:1003C0000623FFF78FFF034603E0FFF78BFF03468B
:1003D000521E012B01D1002AF7D102B90A23184677
:1003E00000BD0000F0B50C460023002600220025C9
:1003F000002100F00047B7F1004F02D18B4FFA699E
:1004000019E000F08047B7F1804F02D1874F3A6A78
:1004100011E000F00057B7F1005F02D1834F7A6A14
:1004200009E000F08057B7F1805F02D17F4FBA6AD0
:1004300001E07E4F7A68C0F3034583B27C4F0740EA
:10044000B7F5401F0AD122F07062784F7F6827F01D
:100450007067DFF8D8C1CCF80470BDE000F48017F5
:10046000B7F5801F13D100F40017B7F5001F03D1B3
:100470000327AF403E0402E0032707FA05F6B24324
:1004800000F0E047002FE8D142F07062A4E000F0F5
:100490008077B7F1807F47D100F00407042F29D17E
:1004A00000F00077B7F1007F16D1C0F340573F014D
:1004B00003FA07F7BA433CB15C4F796841F0010198
:1004C00041F07061796087E0584F796821F001014F
:1004D00041F0706179607FE0C0F340573F0103FA5B
:1004E00007F7BA43514F796821F0010141F070617B
:1004F000796071E043F00407C0F3405C4FEA0C1CE4
:1005000007FA0CF7BA433CB1484F796841F0010152
:1005100041F0706179605FE0444F796821F001013A
:1005200041F07061796057E000F08067B7F1806F4B
:1005300047D100F00807082F29D100F00077B7F164
:10054000007F16D1C0F340573F0103FA07F7BA43C3
:100550003CB1364F796841F0080141F07061796033
:100560003AE0324F796821F0080141F0706179601A
:1005700032E0C0F340573F0103FA07F7BA432B4F6D
:10058000796821F0080141F07061796024E043F05E
:100590000807C0F3405C4FEA0C1C07FA0CF7BA439B
:1005A0003CB1224F796841F0080141F070617960F7
:1005B00012E01E4F796821F0080141F07061796006
:1005C0000AE0C0F340573F0103FA07F7BA4300F0CF
:1005D000E0470FB942F070622CB1C0F340573F01C1
:1005E00003FA07F73A4300F00047B7F1004F02D192
:1005F0000E4FFA6119E000F08047B7F1804F02D149
:100600000A4F3A6211E000F00057B7F1005F02D1E3
:10061000064F7A6209E000F08057B7F1805F02D19F
:10062000024FBA6201E0014F7A60F0BD0000014064
:10063000000030702DE9F041024600250026002020
:1006400000230024002791F803C00CF00F0591F857
:1006500003C00CF0100CBCF1000F03D091F802C0E5
:100660004CEA050591F800C0BCF1000F31D01468C8
:1006700000202BE04FF0010C0CFA00F3B1F800C0A1
:100680000CEA03069E4220D183004FF00F0C0CFAB7
:1006900003F7BC4305FA03FC4CEA040491F803C0D9
:1006A000BCF1280F06D14FF0010C0CFA00FCC2F887
:1006B00014C00AE091F803C0BCF1480F05D14FF017
:1006C000010C0CFA00FCC2F810C0401C0828D1D361
:1006D0001460B1F800C0BCF1FF0F34DD5468002095
:1006E0002EE000F1080C4FF0010808FA0CF3B1F805
:1006F00000C00CEA03069E4221D183004FF00F0C8C
:100700000CFA03F7BC4305FA03FC4CEA040491F825
:1007100003C0BCF1280F05D100F1080C08FA0CF851
:10072000C2F8148091F803C0BCF1480F07D100F162
:10073000080C4FF0010808FA0CF8C2F81080401CB1
:100740000828CED35460BDE8F081F0B504461546C4
:1007500026460B46284600291FDD00BF802215E0F3
:1007600000F400473FB14FF6FF7707EA400041F23F
:100770002107784003E04FF6FF7707EA400037781B
:10078000174017B141F2210778405210002AE7D1F3
:10079000761C5F1EBBB2002BE0DCF0BD00BFFEE7A5
:1007A00008B542F21000ADF8000010208DF80300EB
:1007B00003208DF8020069460D48FFF73BFF012139
:1007C0000C48FFF70FFE1020ADF800008DF8030075
:1007D00003208DF8020069460748FFF72BFF102120
:1007E000054800F071F81021014800F06DF808BDCF
:1007F0000010014000023000000C014001498860F7
:10080000704700000030004010B5012000F0D0F823
:1008100000BF612000F058F90028FAD045F2555089
:1008200000F02AF8012000F021F8074800684FF492
:10083000A071B0FBF1F084B22046FFF7DFFF00F0BB
:100840000DF800F003F810BD080000204CF6CC4075
:100850000149086070470000003000404AF6AA20B5
:1008600001490860704700000030004001494860BD
:1008700070470000003000400149086070470000E8
:100880000030004008B501210420FFF7ABFD8020B7
:10089000ADF8000004208DF8030069460848FFF712
:1008A000C9FE4020ADF8000003208DF8020018209A
:1008B0008DF8030069460248FFF7BCFE08BD000042
:1008C000000C014000BFFEE7016170477047000067
:1008D00070B5002100230F22C47804B3154C24689E
:1008E00004F4E064C4F5E064210AC1F10403CA40E1
:1008F000447804FA03F184781440214309010E4C32
:100900000678A155047804F01F050124AC40057851
:100910006D11AD0005F1E025C5F8004109E004784E
:1009200004F01F050124AC40044D0678761145F80B
:10093000264070BD0CED00E000E400E080E100E046
:1009400002490143024A1160704700000000FA05A5
:100950000CED00E010B50121192000F019F801217B
:10096000880300F015F80121084600F001F810BDD9
:1009700029B1064AD2690243044BDA6104E0034A12
:10098000D2698243014BDA617047000000100240D7
:1009900029B1064A92690243044B9A6104E0034A72
:1009A00092698243014B9A61704700000010024037
:1009B000014908607047000080044242F0B5002100
:1009C00000BF002200250024384E7668384F06EA22
:1009D0000702364E766806F4803502F000661EB9CE
:1009E000022606EB924204E04FF4F876C6EB9246FC
:1009F000721C1DB92F4E02FB06F30BE02B4E7668DE
:100A000006F400361EB12B4E02FB06F302E02A4E1E
:100A100002FB06F3254E766806F00C0121B104298D
:100A200005D0082908D105E0234E066007E0224ED4
:100A3000066004E0036002E01F4E066000BF00BFD6
:100A40001A4E766806F0F00109091C4E745C0668BF
:100A5000E6404660154E766806F4E061090A174ED6
:100A6000745C4668E6408660104E766806F4605115
:100A7000C90A124E745C4668E640C6600B4EF66AC0
:100A800006F00F010E4E745C4668B6FBF4F6466144
:100A9000064EF66A06F4F871090901F00F06094FCF
:100AA00037F81640B3FBF4F60661F0BD00100240C3
:100AB00000003C0800093D0000127A00B83400082C
:100AC000C8340008D834000810B5014600220023BD
:100AD00000204A11012A02D1094C236806E0022AAB
:100AE00002D1074C236A01E0054C636A01F01F0242
:100AF000012494401C400CB1012000E0002010BDF6
:100B000000100240704700000EB5002002900190D6
:100B100000903848006840F480303649086000BFD3
:100B200034480068C0F3404001900098401C009099
:100B30009DF8040018B90098B0F5004FF0D12D4889
:100B40000068C0F3404001909DF8040018B92A489D
:100B50002A4908600EBD2A48006820F0070028498D
:100B600008600846006840F00400086021484068BA
:100B7000204948600846406840F4005048600846F4
:100B8000406840F4A0604860084640681D4908403D
:100B900018494860084640680290029840F4803046
:100BA0000290029802901849029808430290114955
:100BB000029848600846006840F08070086000BFF6
:100BC0000C48006800F000700028F9D0094840681F
:100BD00020F00300074948600846406840F00200E2
:100BE000486000BF0348406800F00C000828F9D1B5
:100BF00000BFAFE70010024000127A0000000020A2
:100C000000200240FFFFC0F700000408704700000A
:100C100010B52448006840F470002249086022485A
:100C2000006840F0010020490860084640681F49FC
:100C300008401D494860084600681D4908401A4997
:100C400008600846006820F4802008600846406874
:100C500018490840144948600020C86208634FF4EE
:100C60001F0088600846C06940F08050C861124883
:100C7000C06840F001001049C8600B48C06920F00E
:100C800080500949C8610D48006840F090000B4948
:100C90000860FFF739FF4FF00060024980390860B3
:100CA00010BD000088ED00E00010024000C0FFF819
:100CB000FFFFF6FEFFFF00F700700040002002403B
:100CC00000B589B04FF4E150ADF818000920ADF837
:100CD00014000020ADF81A00ADF8160005A94FF079
:100CE000804000F0A3F801A800F096F80020ADF8CD
:100CF00004000120ADF806000020ADF80A00ADF8B0
:100D00000C0001A94FF0804000F04CF801220921AD
:100D1000880700F038F80121880700F023F81C202C
:100D20008DF8000000208DF8010001208DF80200F0
:100D30008DF803006846FFF7CBFD012211469007AE
:100D400000F018F80121880700F020F809B000BD74
:100D500010B50121880700F009F800F071FC01F0DE
:100D600089FC10BD02698A430261704702698A43A7
:100D7000026170471AB183890B43838102E0838942
:100D80008B438381704701858282704721B102685D
:100D900042F00102026003E0026822F001020260F8
:100DA0007047000030B5002400220023056A25F0BA
:100DB00001050562026A4368048B4FF68F752C406B
:100DC0004FF6FC752C400D882C4322F002020D8951
:100DD0002A434D882A430E4DA84202D00D4DA84209
:100DE0000FD122F008024D892A4322F004028D8897
:100DF0002A4323F4807323F400738D892B43CD8918
:100E00002B4343600483CD888586026230BD000099
:100E1000002C01400034014000210180418081808C
:100E2000C180018141818181C18170470A460021D1
:100E300001684D4B98420ED04C4B98420BD0B0F10C
:100E4000804F08D04A4B984205D04A4B984202D076
:100E5000494B984203D121F0700153881943474B05
:100E6000984206D0464B984203D021F44071D38873
:100E70001943016093888385138803853A4B984210
:100E800002D03A4B984201D1137A03860123838220
:100E90000168354B98420ED0344B98420BD0B0F1DC
:100EA000804F08D0324B984205D0324B984202D046
:100EB000314B984206D1537A13B141F4006101E0FD
:100EC00021F40061B0F1804F08D0294B984205D041
:100ED000284B984202D0284B98420DD1937A13B1F7
:100EE00041F4805101E021F48051D37A13B141F4EF
:100EF000005101E021F40051B0F1804F05D01C4BAE
:100F0000984202D01B4B984206D1137B13B141F497
:100F1000804101E021F48041134B98420BD0134BE8
:100F2000984208D0B0F1804F05D0114B984202D0C2
:100F3000104B984206D1537B13B141F4004101E0BC
:100F400021F4004101604168B0F1804F02D0094BAB
:100F5000984206D1937B13B141F4807101E021F4F2
:100F60008071416070470000002C01400034014056
:100F70000004004000080040000C00400010004049
:100F800000140040704710B501F0C8FF10BD10B547
:100F90000022002340F66A14A14200D100BF0A12C9
:100FA00001249440A3B2DC43048010BDF0B5034695
:100FB000002400260025002040F66A17B94200D11F
:100FC00000BF1846C1F3421401F01F06012707FABB
:100FD00006F5012C01D10C3004E0022C01D11030B7
:100FE00000E014301AB107682F43076002E0076879
:100FF000AF430760F0BD01468888C0F30800704722
:1010000056312E302E3030FFFFFFFFFFFFFFFFFF76
:10101000FFFF00000000FFFFFFFFFF56302E302EC5
:10102000303100000000000000000000000000005F
:1010300000000000000000000000000000000000B0
:1010400000000000000000000000000000000000A0
:101050000000000000000000000000000000000090
:1010600000000000028A4FF6DF731A400282028AF3
:101070000A430282704721B1828942F40052828180
:1010800004E082894DF6FF731A408281704721B1D6
:10109000028A42F48042028204E0028A4BF6FF7325
:1010A0001A400282704702460020B1F5007F00D14D
:1010B00000BF13880B400BB1012000E000207047F7
:1010C00070B50246002400230025002040F66A1671
:1010D000B14200D100BFC1F3421501F01F03012648
:1010E00006FA03F3012D02D19689334006E0022D62
:1010F00002D1168A334001E0968A33400C12012651
:1011000006FA04F41688344013B10CB1012000E053
:10111000002070BD2DE9F04786B005460F4600243B
:10112000A24600BF00BF0026B88900B100BF2E460E
:101130002C8A4CF6FF700440F88804432C82AC895A
:101140004EF6F3100440B88839890843798908437A
:101150000443AC81AC8A4FF6FF400440B889044395
:10116000AC826846FFF72AFC1448864205D0144832
:10117000864202D01348864202D1DDF80CA001E07D
:10118000DDF808A00AEBCA0000EB0A1039688900F4
:10119000B0FBF1F86420B8FBF0F0040120096421F1
:1011A00001FB1089322000EB0910B0FBF1F000F0D8
:1011B0000F0004432C8106B0BDE8F08700380140E1
:1011C0000050014000540140C1F308028280704782
:1011D00000B585B04FF4964001900020ADF80800AE
:1011E000ADF80A00ADF80C00ADF810000C20ADF819
:1011F0000E0001A91648FFF78DFF00211448FFF7E4
:1012000031FF01211248FFF742FF012240F2255130
:101210000F48FFF7CBFE012240F646010C48FFF7CE
:10122000C5FE4FF4E060FFF78BFB25208DF8000032
:1012300000208DF8020001208DF803006846FFF7BA
:1012400047FB01210248FFF716FF05B000BD000073
:101250000038014000BFFEE7F0B58BB00025002448
:10126000202281A103A8FEF7B9FF002700200290E9
:101270000190002684488579407905EB0025834854
:101280000078022873D182480078012870D1A5F532
:101290007140103820B1112837D0772869D170E01B
:1012A00079484088C01E7B490989884226D100249C
:1012B00006E0E01C7449091D085C77490855641C68
:1012C00074480089A042F4D8724948684FF400611C
:1012D00001F03EFD6F4A118950686F4A01F098FD98
:1012E00030B100206D490870722000F0EDFA0BE07B
:1012F00001206A49087000F007FB05E000206749FB
:101300000870132000F0E0FA9EE05F484088C01E9D
:101310006049B1F8C81088422CD1002406E0E01CD6
:101320005949091D085C5C490855641C5948B0F8C6
:10133000C800A042F3D85749D1F8C4004FF4006167
:1013400001F006FD534A1189D2F8C400524A01F057
:101350005FFD30B1002051490870722000F0B4FAEE
:101360000EE001204D49087000F0CEFA08E073E06D
:101370006BE060E0002049490870132000F0A4FAF7
:1013800062E041484088C01E4249B1F834118842A9
:101390004AD1002406E0E01C3B49091D085C3E4997
:1013A0000855641C3B480089A042F4D800208DF801
:1013B000080002AA04213A4801F0EEFC9DF80860FA
:1013C000012E06D1002035490870012000F07CFA7A
:1013D00030E03049D1F83001042101F0B9FC01209E
:1013E0008DF804002B49D1F830012B4A082101F077
:1013F0000FFD30B1002029490870722000F064FA16
:1014000018E001AA0421264801F002FD30B10020B5
:1014100022490870722000F057FA0BE001201F49A2
:10142000087000F071FA05E000201C4908701320D4
:1014300000F04AFA08E000201849087019490870BD
:10144000312000F041FA00BF0CE000201349087081
:10145000332000F039FA05E00020104908707F20A1
:1014600000F032FA0BB0F0BDFFFFFFFFFFFFFFFF00
:10147000FFFFFFFFFFFFFFFFFFFFFFFFFFFFFFFF7C
:10148000FFFFFFFFFFFF00003E0800203B000020A1
:1014900049000020A8000020BB0900203A000020DD
:1014A00000D206084D00002002E008C8121F08C143
:1014B000002AFAD170477047002001E001C1121FD5
:1014C000002AFBD1704710B500F074F910BD10B5BB
:1014D00001F006FF01F03EFA10BD000000200249B5
:1014E0000968C1F1FF3070474400002010B54D4835
:1014F0000078022870D14C48408803286DDB4A48A8
:101500004088822869DC49480078012875D148481C
:101510000078012869D14748007860BB424840798B
:10152000012821D14048001D00F010FEFF2814D1F1
:1015300001204149087000F0E7F940480088401C4C
:101540003E49088001203B4908703C480088FF283C
:1015500067DD01203949088063E0002036490870C2
:10156000732000F0B1F95CE000203349087073206B
:1015700000F0AAF955E02F48007801282ED12A481A
:1015800041792E480078401CC0B281421DDC2648BB
:10159000001D00F0DBFDFF2810D101202649087056
:1015A00000F0B2F925480088401C2449088008460C
:1015B0000088FF2835DD0020088032E000201E4929
:1015C0000870732000F080F92BE000201A490870A1
:1015D000732000F079F924E01DE015E000201649A1
:1015E0000870732000F070F91BE0002012490870A9
:1015F000242000F069F914E0FFE700200E4908708C
:10160000332000F061F90CE000200B490870132032
:1016100000F05AF905E00020074908707F2000F02B
:1016200053F910BD3B0000203E0800204900002077
:101630005A0000205F0000203A0000205C000020DB
:101640000748007850B1074800884FF6FF7188427C
:1016500004DA04480088401C0249088070470000F2
:101660006C0000205200002070B5002500241A48AC
:10167000407900F07F051848407900F08004174851
:101680000078012806D10020154908707F2000F05D
:101690001BF91FE010484088022815D10E484079F8
:1016A00001280AD11CB102200D49087012E0012066
:1016B0000B49087000F028F90CE000200849087078
:1016C000122000F001F905E0002005490870132000
:1016D00000F0FAF870BD00003E0800203B0000203A
:1016E0003A000020F8B5002529A00068009029489C
:1016F000057BC07A05EB00252648807A05EB00457E
:101700002448407A05EB0065234805602148067CA3
:10171000C07B06EB00261F48807B06EB00461D4879
:10172000407B06EB00661D4806601B4800681C49AC
:10173000884215D3184800681849096808441949AF
:1017400088420DD84FF40031154801F001FBE8B98B
:101750004FF40061144801F0FBFAB8B9FF2415E01A
:101760000D480068114988420FD30B4800680B49A7
:10177000096808440E49884207D84FF400510B48C5
:1017800001F0E6FA10B9FF2400E053242046F8BD2A
:10179000FFFF00003E080020980000209C00002071
:1017A000000002080000040800F007080000050817
:1017B000001C05081CB50020009000246A46042186
:1017C000184801F0E9FA9DF80000552819D19DF854
:1017D0000100AA2815D100214007FFF7D7FA4FF4DE
:1017E0000061104801F0B4FA01218807FFF7CEFA32
:1017F00002200D49087001200C4908700C4908703E
:101800000EE001AA04210B4801F0C6FA9DF804007D
:101810005A2805D19DF80500A52801D100F00CF843
:101820001CBD0000008007083B000020480000208D
:101830006C00002000F2070810B500214FF0804036
:10184000FFF7A4FA014801F00BFE10BD00000208EA
:1018500010B51A484088022828D1184800793E2837
:101860001DD11648407940B9002015490880012053
:101870001449087000F048F81EE0104840798028AC
:1018800006D100200E49088002200E49087013E09E
:1018900000200C490870122000F016F80CE000201F
:1018A00008490870122000F00FF805E000200549F3
:1018B0000870132000F008F810BD00003E0800205A
:1018C000520000203A0000200146002000BF04E042
:1018D000FF220A4B1A54421CD0B24028F8DB084AB7
:1018E0001278064B1A7003225A707F229A70054AAA
:1018F0001279DA701A46117170470000420900200F
:10190000610000203E08002030B585B0002400258D
:1019100000BF04E0FF20FE490855601CC4B2402C03
:10192000F8DBFC480078FA490870FB480079312858
:1019300073D008DC10280FD0112816D0222827D009
:10194000272811D190E1342868D0362867D037286D
:101950007ED03E28F5D117E20220ED494870502094
:101960008870ED484079C87016E20220E849487056
:1019700051208870E8484079C8700120E749087014
:10198000E748007820F008000830E549087003E2D5
:10199000E1488579407905EB00254FF2F811681A86
:1019A0008D4278D00BDCA5F57040A0F5E17078B1E0
:1019B000312871D0322870D035282DD16FE002281F
:1019C0006CD004282CD0A0F60B200028F5D117E10C
:1019D0006A460421D34801F0DFF91020CC49487051
:1019E000072088706220C870F1200871C2204871F9
:1019F0009DF8000088719DF80100C871C548007805
:101A00000872212048729DF8020088729DF8030038
:101A1000C8720A20C449088021E150E1A8E198E198
:101A20006A460921C14801F0B7F91020B849487049
:101A30000C2088706220C870F1200871FC20487169
:101A40009DF8000088719DF80100C871B14800E060
:101A500088E100780872212048729DF8020088729F
:101A60009DF80300C8729DF8040008739DF80500F6
:101A700048739DF8060088739DF80700C873A54851
:101A800000780874222048749DF80800887411209A
:101A9000A5490880E3E028E076E09BE03BE06A4669
:101AA0000421A248103001F077F9102098494870BD
:101AB000072088706220C870F1200871F7204871F3
:101AC0009DF8000088719DF80100C8719148007868
:101AD0000872212048729DF8020088729DF8030068
:101AE000C8720C2090490880B9E06A4601218F48ED
:101AF000143001F051F90420854948706220887043
:101B0000F120C870F82008719DF800004871062087
:101B100085490880A3E06A460921854801F03CF91F
:101B200010207B4948700C2088706220C870F1201A
:101B30000871FA2048719DF8000088719DF8010035
:101B4000C871744800780872212048729DF802001C
:101B500088729DF80300C8729DF8040008739DF810
:101B6000050048739DF8060088739DF80700C87348
:101B7000684800780874222048749DF8080088742A
:101B80001120694908806AE06A46042168481030DB
:101B900001F002F910205E49487007208870622029
:101BA000C870F1200871F32048719DF80000887119
:101BB0009DF80100C87157480078087221204872CA
:101BC0009DF8020088729DF80300C8720C205649E7
:101BD000088044E06A4601215548143001F0DCF8E1
:101BE00004204B49487062208870F120C870F420AE
:101BF00008719DF80000487106204B4908802EE0CE
:101C00006A4607214A48203001F0C6F810204049B2
:101C100048700A2088706220C870FC200871032078
:101C200048719DF8000088719DF80100C87139481D
:101C300000780872212048729DF8020088729DF891
:101C40000300C8729DF8040008739DF805004873EE
:101C50009DF8060088730F203349088000BF00BF3D
:101C600001203449087097E02B48407901281AD1A7
:101C700031480068314908600620254948706720CE
:101C8000887025484079C8702C480068000E08719B
:101C90002A480068000C487128480088000A8871AA
:101CA00026480078C8711C484079022806D1184996
:101CB00048706720887018484079C8706CE01648F2
:101CC0004079012817D1042011494870712088708B
:101CD00011484079C8701048807908710E48C07961
:101CE00048710D488079FF2805D10B48C07910B99B
:101CF00001201349087008484079032828D104209E
:101D0000034948707120887003484079C87019E011
:101D100042090020610000203E0800204C00002005
:101D20006E000020101002086A000020D0F7FF00AB
:101D3000D03FFE004D000020400000204400002065
:101D40004A0000201648807908711548C07948710A
:101D500022E00220134948707620887010484079AC
:101D6000C87019E001200F4948707720887013E08F
:101D700004200C494870742088702020C87000200E
:101D800008718220487107E00220064948707E20D1
:101D900088700020C87000BF00BF05B030BD0000D3
:101DA0003E080020420900202DE9F84F00240025BC
:101DB0000026A046A14600270020009082467D48CC
:101DC000C179807901EB00247B480078012806D195
:101DD00000207A4908707F20FFF776FDE7E075481C
:101DE00040880D2803D073484088042878D174486F
:101DF0000078012875D173480078342801D001207B
:101E000000E000206F490978362901D0012100E067
:101E100000210843002875D066484079012802D087
:101E2000032870D14FE0012067490870B4F57F4F57
:101E300038D16048057BC07A05EB00255D48807A83
:101E400005EB00455B48407A05EB00655F4805609F
:101E50005848067CC07B06EB00265648807B06EB84
:101E600000465448407B06EB0066594806605748D8
:101E70000068584988420ED354480068544909689C
:101E800008445549884206D800204C4908707820FB
:101E9000FFF71AFD16E00020484908703120FFF7CF
:101EA00013FD0FE04FF60170844205D10120434934
:101EB0000870FFF729FD05E0002040490870312037
:101EC000FFF702FD5EE0B4F57F4F24D13E48007875
:101ED00040B9002039490870F020FFF7F5FC49E0CF
:101EE0005FE057E00020384908703C480078FF2840
:101EF0000AD1012031490870FFF706FD002037495B
:101F0000087037E03FE036E000202C490870F220EE
:101F1000FFF7DAFC2EE04FF60170844224D12A4804
:101F2000007830B9002025490870F020FFF7CCFC7C
:101F300020E000202449087029480078070228483A
:101F40004078384487B227480088B84205D101203C
:101F50001A490870FFF7D8FC0CE0002017490870F8
:101F6000F320FFF7B1FC05E0002014490870312090
:101F7000FFF7AAFC06E00020104908701220FFF7C6
:101F8000A3FC00BF13E000200C4908702420FFF7D9
:101F90009BFC0CE00020094908703320FFF794FCFB
:101FA00005E00020054908701320FFF78DFCBDE80F
:101FB000F88F00003E0800203B0000203A0000207F
:101FC00049000020600000207000002098000020E0
:101FD0009C00002000000208001C05084B000020A7
:101FE000280000208A00002070B500200023002473
:101FF000114DAA7A6D7A02EB05220F4D2D7A02EB74
:1020000005420D4DED7902EB05620C4D2A600A4D3B
:10201000A97B6D7B01EB0521074D2D7B01EB054174
:10202000C1F3C715064E357001F07F05054E3580AA
:10203000054D296070BD00003E0800202C000020E6
:1020400034000020360000203000002010B50024AD
:1020500038488479407904EB0024364840880328C6
:1020600061D14FF2F811601A8C4239D00CDCA4F522
:102070007040A0F5E170002838D0312812D0322805
:1020800016D0352839D125E0022805D004281BD0E8
:10209000A0F60B2080BB11E0012027490870FFF754
:1020A00033FC33E0012024490870FFF72DFC2DE0BC
:1020B000012021490870FFF727FC27E001201E4975
:1020C0000870FFF721FC21E001201B490870FFF791
:1020D0001BFC1BE0012018490870FFF715FC15E0F8
:1020E000012015490870FFF70FFC0FE0012012498D
:1020F0000870FFF709FC09E0FFE700200E490870AF
:102100000E4908703120FFF7DFFB00BF00BF0C480D
:102110000068A04204D000200A4908700A490870EB
:102120000748046005E00020034908701320FFF70A
:10213000CBFB10BD3E0800203A0000204D000020DF
:102140008C020020690000204E0000202DE9F84F8D
:1021500083460027002000908226804681468246E2
:102160009B48408882280FD0994846888220984909
:1021700048800846877805E0FF219548001DC15535
:10218000781CC7B2822FF7DB924800689249096831
:1021900001EBC0158F480068401C8E4908608F48CD
:1021A000854278D38E48854275D28E4800780128C2
:1021B00001D1002412E0822E07D2B11E844A921D62
:1021C000284600F025FE044608E081484088811E2C
:1021D0007F4A921D284600F01BFE0446002C6BD15E
:1021E0007C48006880490968B1EBC01F1CD8301FCB
:1021F00081B27E4802887648801DFEF7A6FA7B49A8
:1022000008800846008810B945F255500880B01E75
:102210006F49091D085C76490870701E6C49091DDC
:10222000085C734948700BE069484088801E81B2A1
:102230006E4802886648801DFEF787FA6B49088061
:102240006448006868490968B1EBC01F32D80020B3
:102250006049086064BB5A208DF80000A5208DF805
:10226000010060480078012801D1002415E0604891
:1022700000784FEA00285E48407840441FFA80F812
:102280005A480088404507D16A460421594800F061
:10229000BFFD044601E016E05724012056490870AE
:1022A0000020564908700CB9FF248EE057248CE0BA
:1022B00057248AE0FF2488E0002051490870132049
:1022C000FFF702FB81E04F48854257D34E488542D5
:1022D00054D244480078012801D1002408E03C4849
:1022E0004088811E3A4A921D284600F091FD04461E
:1022F000002C6AD137480068012813D1344880790E
:102300003B4908703248C0794870314840881238DB
:1023100081B2364802882E481630FEF716FA334945
:10232000088011E02A484088801E81B22F48028828
:102330002748801DFEF709FA2C49088008460088C6
:1023400010B945F2555008802248006826490968AE
:10235000B1EBC01F10D800201E49086054B90120FD
:10236000254908700020254908700CB9FF242CE08D
:1023700057242AE0572428E0FF2426E0B5F5805FA3
:1023800023D3B5F5985F20D216480078012801D1F3
:10239000002400E00024C4B90E480068124909680E
:1023A000B1EBC01F10D800200A49086054B90120C1
:1023B000114908700020114908700CB9FF2404E08D
:1023C000572402E0572400E0FF242046BDE8F88FA0
:1023D0003E080020640000202C00002000000208BD
:1023E0000000040862000020300000208A00002065
:1023F0002800002000F207085E0000205A0000209C
:102400003A00002000000508001C050870B50024F3
:1024100000255548847A407A04EB00245248007A1B
:1024200004EB00445048C07904EB00644E48857BBF
:10243000407B05EB00254C48007B05EB00454A48F6
:10244000C07A05EB006549480078022873D14648F8
:1024500040880B2879D14648007801286ED142483F
:10246000407910B101285ED141E04248007801284E
:1024700036D1B5F5003F14D83F48844211D36019D6
:102480003E4988420DD8FFF7AFFD01203C49087056
:10249000FFF73AFA002037490870012039490870DF
:1024A00024E0B5F5E05F14D83748844211D36019B1
:1024B000364988420DD8FFF797FD01203049087052
:1024C000FFF722FA00202B49087001202D490870DF
:1024D0000CE000202A4908703120FFF7F5F905E0EB
:1024E0000020274908702220FFF7EEF922E0B5F519
:1024F000007F11D8B4F5805F0ED36019B0F5905FFE
:102500000AD8FFF771FD01201D490870FFF7FCF99B
:1025100001201C49087005E000201949087031208D
:10252000FFF7D2F906E00020154908703120FFF7C7
:10253000CBF900BF16E00FE007E0FFE700201049ED
:1025400008703320FFF7C0F90CE000200C49087038
:102550001320FFF7B9F905E00020094908707F2032
:10256000FFF7B2F970BD00003E0800203B000020DC
:102570004900002059000020000002080000040863
:102580003A0000205A00002000000508001C050841
:1025900070B5002400251E48407900F07F041C48D7
:1025A000407900F080051B480078022828D118489F
:1025B000408801281DD118480078012812D11748F9
:1025C0000078012807D116490870FFF79DF900200F
:1025D000124908701AE00020114908702420FFF702
:1025E00073F913E000200E4908703320FFF76CF9EF
:1025F0000CE000200A4908701320FFF765F905E098
:102600000020074908707F20FFF75EF970BD0000C9
:102610003E0800203B000020490000205E00002012
:102620003A00002000214FF08040FEF7AFFB00BFD2
:1026300000BF00BF00BF00BFBFF34F8F00BF00BF90
:1026400000BF0A48006800F4E06009490843001D23
:102650000649086000BF00BF00BFBFF34F8F00BF37
:1026600000BF00BF00BF00BFFDE700000CED00E0B1
:102670000000FA050E480078012817D10D4800889F
:102680004FF6FF71884211DA0A48008842F2107151
:10269000884206DB00200849087005490870054992
:1026A000088004480088401C0249088070470000E8
:1026B00048000020500000203E00002010B50024FB
:1026C00058480078012806D10020574908707F201B
:1026D000FFF7FAF8A4E055484088022803D0534891
:1026E0004088062872D152480078012809D100207C
:1026F0004D4908703720FFF7E7F800204D49087072
:102700008EE000204C49087048484079012802D0EA
:10271000022877D113E045484088022808D10120DB
:1027200041490870022045490870FFF7EDF805E0BF
:1027300000203D4908701320FFF7C6F869E03B48C8
:102740004088062857D1394884792402C079044446
:1027500024023648007A044424023448407A04446F
:102760003648007802283ED1FEF7B8FEA0420AD1D2
:102770000020304908700120304908702A4908704B
:10278000FFF7C2F83DE000202C4908702948007886
:1027900001280BDA27480078401C264908700020E1
:1027A000214908703520FFF78FF82AE0214800788A
:1027B00002280CDA1F480078401C1E4908700020CF
:1027C000194908703620FFF77FF81AE022E001204F
:1027D00017490870184908700020134908703720FD
:1027E000FFF772F80DE000200F4908702420FFF772
:1027F0006BF806E006E000200B4908701320FFF795
:1028000063F806E00020084908701220FFF75CF822
:1028100000BF05E00020044908701320FFF754F8BA
:1028200010BD00003B0000203A0000203E080020C0
:102830003E000020560000204800002049000020F3
:102840007CB5002500240020019000902F4840799D
:1028500000F07F052D48407900F080042B48408827
:1028600002284CD1012D02D0022D40D124E001AA32
:102870000421274800F090FA9DF804005A2814D14A
:102880009DF80500A52810D1012022490870224991
:1028900008702249087022490870FFF735F854B1D2
:1028A00002201E490870FFF7BDFE00201B4908707A
:1028B0002220FFF709F821E017480078012806D107
:1028C0000020164908701220FEF7FEFF0EE00220DD
:1028D0001149087001201149087000201049087042
:1028E000FFF712F814B102200C49087006E000202E
:1028F0000A4908701220FEF7E7FF00BF05E000203C
:10290000064908701320FEF7DFFF7CBD3E0800205B
:1029100000F207084C0000203B0000203A00002095
:102920004900002008480078012805D10020074907
:1029300008700749088005E000200549088001204B
:1029400002490870704700003B0000206C00002026
:102950005200002070B5C2B00025002400260020DF
:102960004190E448006810F1020F05D2E148006888
:10297000401CE049086002E00120DE490860DE48B2
:10298000008841F28731884201DDFFF74BFE00F0FD
:10299000EDFB012877D1684600F0DCFB4FF4827232
:1029A0006946D648FDF71AFCD4480078D449087027
:1029B00008460078672803D10120D249087002E058
:1029C0000020D0490870D04800783C2876D1CB4808
:1029D00000792F2858D00CDC22283DD004DC1028A8
:1029E00014D011286BD12BE027283ED02E28F9D106
:1029F0001AE036287ED004DC312851D03428F1D1B9
:102A00005EE0372875D03E28ECD18FE01020BF491A
:102A10000870FFF715FF0120BD4908700020BD496F
:102A20000870FFF77FFF97E02E20B8490870FEF787
:102A300013FC0120B64908700020B64908708BE0ED
:102A40001120B2490870FEF70FFE0120B04908704E
:102A50000020B04908707FE02220AC490870FFF7E1
:102A6000F5FA0120AA49087076E0FFF727FE272033
:102A7000A64908700120A64908700020A5490870E1
:102A8000FFF750FF68E033E12F20A049087000F005
:102A9000ADFC01209E49087000209E49087000BFCF
:102AA00031209A490870FFF77FF901209849087092
:102AB000002098490870FFF735FF4DE057E041E0EE
:102AC000342092490870FFF7A1FC0120904908705A
:102AD0004FF6FF7090490880002090490870904997
:102AE0000880904908608B490870FFF71BFF33E0AE
:102AF00000E00DE0362085490870FEF7F7FC012064
:102B000083490870002083490870FFF70BFF23E01A
:102B100037207E490870FFF73BFD00207D49087093
:102B2000FFF700FF01207A49087015E03E20774941
:102B30000870FEF78DFE0020764908700120744968
:102B4000087009E001207249087000207649087079
:102B50003120FEF7B9FE00BF00BF7449097800229A
:102B600002EBC101724A881800F006FCC0E066481A
:102B700000783D28FAD1664800780128F6D16D48E2
:102B80000078F8B96848007802281BD061480078BE
:102B9000012817D000F0DCFB6548007978280ED1B9
:102BA000012061490870FEF7AFFE604909780022F4
:102BB00002EBC1015E4A881800F0DEFB02E0002053
:102BC0005349087053480078012877D15A4805883E
:102BD0004A488679407906EB0026C5F3C7044FF2D0
:102BE000F811701A8E421AD00BDCA6F57040A0F5D1
:102BF000E170A8B131280DD032280CD035285BD136
:102C00000CE0022805D0042807D0A0F60B20E8BB72
:102C100002E000BF00BF00BF00BF00BF00BF00BF99
:102C200005F0070010BB45480078A04212DA43497E
:102C30000978002202EBC1013D4A881800F09CFB94
:102C400000F086FB3D480078401C3C49087001209C
:102C50003849087039480078A0422BDB00203749FA
:102C60000870344908702A49087023E03348007816
:102C7000A04214DC31490978002202EBC1012C4A40
:102C8000881800F079FB00F063FB00E014E02B48AB
:102C90000078401C294908700120264908702748FF
:102CA0000078A04206DD0020244908702149087000
:102CB0001749087001E001E000BF00BF204800781C
:102CC00088B110480078012803D1FF201D49087001
:102CD00003E0FEF707FD1B49087000201849087043
:102CE0000120194908701948007808B1FFF79AFCCB
:102CF00042B070BD40000020520000203E0800207D
:102D00006100002062000020190000206000002007
:102D10004F0000204D0000208A0000205F000020AE
:102D20005C000020640000203A00002057000020D2
:102D3000420900204E0000206A00002069000020A7
:102D40004A0000204B000020590000204C000020C9
:102D50002DE9F04105460E4600240027A046C6F3A3
:102D6000CF28FDF71FFB00BF0FE005EBC427384657
:102D7000FDF78EFA062804D0FDF7DCFA0120BDE845
:102D8000F081FDF76BFD601CC4B24445EDDBFDF73F
:102D9000D1FA0020F3E70000F0B504460D4600200C
:102DA000002100230026C5F3870600BF07E027683F
:102DB000DFF858C04CF82170241D4F1CF9B2B14205
:102DC000F5DB00211FE0114F17F8237057540F4F08
:102DD00037F82370C7F3072C4F1C02F807C00B4FBE
:102DE00057F82370C7F3074C8F1C02F807C0074F32
:102DF00057F823704FEA176CCF1C02F807C00F1D5D
:102E0000F9B25F1CFBB2A942DDD3F0BD6C07002014
:102E10002DE9F04707460E4615464FF00008C1461B
:102E200000201D490870C6F38F0972B6FDF7BAFA83
:102E3000002412E0295D601C285C01EB0021A01C2D
:102E4000285C01EB0041E01C285C01EB00601349A9
:102E500041F82800241D08F10108B442EAD30024F7
:102E600011E00D490C700D4A52F8241007EB840054
:102E7000FDF76AFA062805D0FDF75CFA62B6012074
:102E8000BDE8F087641C4C45EBD3FDF7E7FCFDF78C
:102E900051FA62B60020F3E70C000020A4020020E3
:102EA00000200149087070471E00002030B505461B
:102EB0000C463C2A03D07D2A01D0114600E00021B7
:102EC000234606E0E85C0144FF2900D9FF39581C7D
:102ED000C3B20448007820449842F3DCC843C0B22F
:102EE00030BD00001B000020014908787047000039
:102EF000190000200146002004E0044A125C0A5434
:102F0000421CD0B20928F8DB7047000034080020CA
:102F100001490878704700001E00002070B540F697
:102F200046013C48FEF7CCF801280DD140F6460199
:102F30003848FEF72CF8374800883648001D0088CE
:102F400003203549087070BD40F225513148FEF725
:102F5000B7F801280ED140F225512E48FEF717F898
:102F60004FF4B0712B48FEF7ABF818B92948FEF7BB
:102F700042F8C4B228480078032804D004280CD0B2
:102F8000062843D11CE0552C03D1042022490870A7
:102F900002E000202049087039E0E0B2012100F091
:102FA00049F81E49087008460078FF2804D00846F2
:102FB000007800F067F802E000201749087026E06A
:102FC000174802780078401C154B18701548845437
:102FD0001846007814490978884216D100210F4814
:102FE000007800F027F805462A4600210D48FFF733
:102FF0005DFF0E4909780B4A515C884205D10120DA
:103000000B49087000200449087000E000BF00BFB1
:1030100000BF98E700380140180000201900002088
:103020001A000020340800201C0000201B00002093
:103030001E00002070B5024602F00104C2F34005F4
:103040006C40C2F380056C40C2F300156C40A501D2
:10305000540884EAD20484EA121484EA5214E44341
:1030600045EAC414E3B2012908D102F0C0049C422D
:1030700001D0FF2004E002F03F0001E042EA03003B
:1030800070BD00000146002000BF33E01B4A12F86B
:1030900010208A4227D1194A02EB400252789AB195
:1030A000164A02EB40025278154B1A70134A02EB93
:1030B00040025278521C134B1A700022124B1A70A5
:1030C0000622124B1A7017E00C4A12F810203D2A03
:1030D00009D108220A4B1A7000220C4B1A700122E7
:1030E0000B4B1A7008E0022802D10022074B1A701D
:1030F000421CD0B20328C9DB00BF7047F834000877
:103100001B0000201C0000201A00002018000020D6
:103110001E00002070B504460D460BE000BF4021A4
:103120000B48FDF7C0FF0028F9D014F8011B084830
:10313000FEF74AF8281EA5F10101CDB2EED100BF7D
:1031400040210348FDF7AFFF0028F9D070BD000013
:103150000038014010B504464FF4827202492046FF
:10316000FDF73CF810BD0000480C0020024908782B
:103170000021014A1170704790020020524949789D
:1031800001F0F00121B1102918D020297ED138E0BA
:103190004D4949784D4A5180002007E04A4A811C38
:1031A000525C4A49091D0A54411CC8B24749498822
:1031B0008142F3DC0121464A117082E0424949789C
:1031C00000210902414A5180114649883E4A9278BD
:1031D00011433E4A5180002007E03B4AC11C525C2B
:1031E0003A49091D0A54411CC8B20528F5D30121EA
:1031F000384A11700521384A11600121374A11708F
:103200005FE034490978012959D12F49497801F003
:103210000F01324A127891424ED12C4949882E4AE8
:103220001268891A062917D200200EE0264A811C4E
:10323000525C2649091D284B1B68CA542649096857
:10324000491C254A1160411CC8B220494988224ABC
:1032500012689142EAD812E000200EE01A4A811C5E
:10326000525C1A49091D1C4B1B68CA541A4909684B
:10327000491C194A1160411CC8B20628EED31349F3
:103280004988154A1268914208D800E018E00021E8
:10329000104A117001210E4A117010E00F4909788F
:1032A0000F2905D20D490978491C0C4A117006E016
:1032B00000210A4A117002E00021064A117000E064
:1032C00000BF00BF704700003E0C0020480C0020EB
:1032D000900200209202002094020020930200201D
:1032E00010B5FFF715FE48B3FFF7DAFDFFF7FCFD59
:1032F00004461348FFF7FEFD3C2C02D03D2C1BD1A9
:1033000014E00F480078662807D00D480078672839
:1033100003D00B4800787F2807D109480078094975
:103320000870FFF72BFF0848047006E001200749EA
:1033300008700548047000E000BF00BF10BD000029
:103340003E0C0020480C002091020020900200203A
:1033500010B500213D20FFF76DFE044622460021F6
:103360000448FFF7A3FD0349087209210148FFF74C
:10337000D1FE10BD9802002010B5014600200022A9
:103380004B7803F0F00222B1102A0CD0202A1ED173
:1033900013E0002004E00B5C134C2354431CD8B210
:1033A0000828F8DB1DE0002004E00B5C0E4C2354E1
:1033B000431CD8B20828F8DB13E0002004E00B5CC3
:1033C000094C2354431CD8B20828F8DB09E000203C
:1033D00004E08823044C2354431CD8B20828F8DBAB
:1033E00000BF00BF10BD00009802002070B500248F
:1033F0000025002616488479407904EB00241548FE
:10340000007803281CD112484088042811D11248A2
:103410000078012806D10020104908702220FEF70C
:1034200053FA13E000200D4908703320FEF74CFAE0
:103430000CE00020094908701320FEF745FA05E06A
:103440000020064908707F20FEF73EFA70BD00009C
:103450003E0800203B000020490000203A000020E8
:1034600010B50446206820F07040B0F5002F08D257
:103470006068044908602068FCF79AFE014800680B
:10348000804710BD7C02002010B5FDF7FBF9FDF769
:103490009FFE10BDFDF75EFAFDF782F9FFF7F4FF1E
:1034A000FDF70EFCFDF7B0F9FEF70DF803E0FDF7B0
:1034B000D5F9FEF70CF8FAE700000000010203045A
:1034C000010203040607080901020406080A0C1099
:1034D00020202020202020200100020004000600DF
:1034E00008000A000C0010002000400080000001CD
:1034F00000010001000100013C083D000808000037
:103500002035000800000020A4020000240200086A
:1035100064360008A4020020B42A0000B814000891
:103520001144449508E3409C22FF23080900091434
:1035300011223344556677880256021AFF7B011226
:103540003310F1150806081012202A110C4A100C2D
:103550002A120C4A180C2A130C4A200C2A140C4A62
:10356000280C2A150C4A300C2A160C4A380C2A173B
:103570000C4A400C2A180C4A480C2A190C4A500CC8
:103580002A1A0C4A580C2A1B0C4A600C2A1C0C4A9A
:10359000680C2A1D0C4A700C2A1E0C4A780C2A1F33
:1035A0000C4A800C2A210C4A880C2A900C15900693
:1035B000081112A82A980C159806080B12A02AA820
:1035C0000C1DA00608140C2AAA0C1DA8060805301C
:1035D0002A8B0C1DB0060803302A8C0C2AB848220E
:1035E000A8290C1DC0060806242AA90C2AC83012D6
:1035F000A02A870C4AD03C2A830C121013080A1206
:10360000401A910C1A0A0C1A050C1A920C5A0F182F
:103610001A8A0C5A19183A20301A026012401A9469
:103620000C1A100C29241AA00C1A1A0C29241AA2FC
:103630000C1A1F0C1A080C1AA50C1A270C1A030CCA
:103640001AA10C5A2E2423F1FC1A330C1A070C2A47
:10365000B5543B2807181AF2181A1E6C2918011CB9
:04366000B2FF0000B5
:040000050800019955
:00000001FF
